{
	"struct-Book.sol": {
		"Books": {
			"abi": [
				{
					"inputs": [],
					"name": "Book1",
					"outputs": [
						{
							"internalType": "string",
							"name": "title",
							"type": "string"
						},
						{
							"internalType": "uint256",
							"name": "price",
							"type": "uint256"
						},
						{
							"internalType": "address",
							"name": "owner",
							"type": "address"
						},
						{
							"internalType": "bool",
							"name": "sold",
							"type": "bool"
						}
					],
					"stateMutability": "view",
					"type": "function"
				},
				{
					"inputs": [],
					"name": "buyBook",
					"outputs": [],
					"stateMutability": "payable",
					"type": "function"
				},
				{
					"inputs": [
						{
							"internalType": "uint256",
							"name": "",
							"type": "uint256"
						}
					],
					"name": "buyers",
					"outputs": [
						{
							"internalType": "address",
							"name": "",
							"type": "address"
						}
					],
					"stateMutability": "view",
					"type": "function"
				},
				{
					"inputs": [],
					"name": "buyersCount",
					"outputs": [
						{
							"internalType": "uint256",
							"name": "",
							"type": "uint256"
						}
					],
					"stateMutability": "view",
					"type": "function"
				},
				{
					"inputs": [],
					"name": "getBook",
					"outputs": [
						{
							"internalType": "string",
							"name": "",
							"type": "string"
						},
						{
							"internalType": "uint256",
							"name": "",
							"type": "uint256"
						}
					],
					"stateMutability": "view",
					"type": "function"
				},
				{
					"inputs": [
						{
							"internalType": "string",
							"name": "x",
							"type": "string"
						},
						{
							"internalType": "uint256",
							"name": "y",
							"type": "uint256"
						}
					],
					"name": "setBook",
					"outputs": [],
					"stateMutability": "nonpayable",
					"type": "function"
				},
				{
					"inputs": [
						{
							"internalType": "uint256",
							"name": "amt",
							"type": "uint256"
						}
					],
					"name": "toWei",
					"outputs": [
						{
							"internalType": "uint256",
							"name": "",
							"type": "uint256"
						}
					],
					"stateMutability": "pure",
					"type": "function"
				}
			],
			"devdoc": {
				"kind": "dev",
				"methods": {},
				"version": 1
			},
			"evm": {
				"assembly": "    /* \"struct-Book.sol\":57:1040  contract Books{... */\n  mstore(0x40, 0x80)\n  callvalue\n  dup1\n  iszero\n  tag_1\n  jumpi\n  0x00\n  dup1\n  revert\ntag_1:\n  pop\n  dataSize(sub_0)\n  dup1\n  dataOffset(sub_0)\n  0x00\n  codecopy\n  0x00\n  return\nstop\n\nsub_0: assembly {\n        /* \"struct-Book.sol\":57:1040  contract Books{... */\n      mstore(0x40, 0x80)\n      jumpi(tag_1, lt(calldatasize, 0x04))\n      shr(0xe0, calldataload(0x00))\n      dup1\n      0x669dafe8\n      gt\n      tag_9\n      jumpi\n      dup1\n      0x669dafe8\n      eq\n      tag_5\n      jumpi\n      dup1\n      0x808f0114\n      eq\n      tag_6\n      jumpi\n      dup1\n      0xba49a08c\n      eq\n      tag_7\n      jumpi\n      dup1\n      0xf2aa8218\n      eq\n      tag_8\n      jumpi\n      0x00\n      dup1\n      revert\n    tag_9:\n      dup1\n      0x10c35eb9\n      eq\n      tag_2\n      jumpi\n      dup1\n      0x189a55e7\n      eq\n      tag_3\n      jumpi\n      dup1\n      0x3b0c197e\n      eq\n      tag_4\n      jumpi\n    tag_1:\n      0x00\n      dup1\n      revert\n        /* \"struct-Book.sol\":189:208  MyBook public Book1 */\n    tag_2:\n      callvalue\n      dup1\n      iszero\n      tag_10\n      jumpi\n      0x00\n      dup1\n      revert\n    tag_10:\n      pop\n      tag_11\n      tag_12\n      jump\t// in\n    tag_11:\n      mload(0x40)\n      tag_13\n      swap5\n      swap4\n      swap3\n      swap2\n      swap1\n      tag_14\n      jump\t// in\n    tag_13:\n      mload(0x40)\n      dup1\n      swap2\n      sub\n      swap1\n      return\n        /* \"struct-Book.sol\":580:944  function buyBook () public payable  {... */\n    tag_3:\n      tag_15\n      tag_16\n      jump\t// in\n    tag_15:\n      stop\n        /* \"struct-Book.sol\":358:468  function getBook () public view returns (string memory,uint) {... */\n    tag_4:\n      callvalue\n      dup1\n      iszero\n      tag_17\n      jumpi\n      0x00\n      dup1\n      revert\n    tag_17:\n      pop\n      tag_18\n      tag_19\n      jump\t// in\n    tag_18:\n      mload(0x40)\n      tag_13\n      swap3\n      swap2\n      swap1\n      tag_21\n      jump\t// in\n        /* \"struct-Book.sol\":474:574  function toWei(uint amt) public pure returns(uint) {... */\n    tag_5:\n      callvalue\n      dup1\n      iszero\n      tag_22\n      jumpi\n      0x00\n      dup1\n      revert\n    tag_22:\n      pop\n      tag_23\n      tag_24\n      calldatasize\n      0x04\n      tag_25\n      jump\t// in\n    tag_24:\n      tag_26\n      jump\t// in\n    tag_23:\n      mload(0x40)\n        /* \"#utility.yul\":1545:1570   */\n      swap1\n      dup2\n      mstore\n        /* \"#utility.yul\":1533:1535   */\n      0x20\n        /* \"#utility.yul\":1518:1536   */\n      add\n        /* \"struct-Book.sol\":474:574  function toWei(uint amt) public pure returns(uint) {... */\n      tag_13\n        /* \"#utility.yul\":1399:1576   */\n      jump\n        /* \"struct-Book.sol\":246:352  function setBook (string memory x,uint y) public {... */\n    tag_6:\n      callvalue\n      dup1\n      iszero\n      tag_29\n      jumpi\n      0x00\n      dup1\n      revert\n    tag_29:\n      pop\n      tag_15\n      tag_31\n      calldatasize\n      0x04\n      tag_32\n      jump\t// in\n    tag_31:\n      tag_33\n      jump\t// in\n        /* \"struct-Book.sol\":950:1037  function buyersCount() public view returns(uint){... */\n    tag_7:\n      callvalue\n      dup1\n      iszero\n      tag_34\n      jumpi\n      0x00\n      dup1\n      revert\n    tag_34:\n      pop\n        /* \"struct-Book.sol\":1016:1022  buyers */\n      0x03\n        /* \"struct-Book.sol\":1016:1029  buyers.length */\n      sload\n        /* \"struct-Book.sol\":950:1037  function buyersCount() public view returns(uint){... */\n      jump(tag_23)\n        /* \"struct-Book.sol\":215:239  address [] public buyers */\n    tag_8:\n      callvalue\n      dup1\n      iszero\n      tag_38\n      jumpi\n      0x00\n      dup1\n      revert\n    tag_38:\n      pop\n      tag_39\n      tag_40\n      calldatasize\n      0x04\n      tag_25\n      jump\t// in\n    tag_40:\n      tag_41\n      jump\t// in\n    tag_39:\n      mload(0x40)\n      sub(shl(0xa0, 0x01), 0x01)\n        /* \"#utility.yul\":2882:2914   */\n      swap1\n      swap2\n      and\n        /* \"#utility.yul\":2864:2915   */\n      dup2\n      mstore\n        /* \"#utility.yul\":2852:2854   */\n      0x20\n        /* \"#utility.yul\":2837:2855   */\n      add\n        /* \"struct-Book.sol\":215:239  address [] public buyers */\n      tag_13\n        /* \"#utility.yul\":2718:2921   */\n      jump\n        /* \"struct-Book.sol\":189:208  MyBook public Book1 */\n    tag_12:\n      0x00\n      dup1\n      sload\n      dup2\n      swap1\n      tag_44\n      swap1\n      tag_45\n      jump\t// in\n    tag_44:\n      dup1\n      0x1f\n      add\n      0x20\n      dup1\n      swap2\n      div\n      mul\n      0x20\n      add\n      mload(0x40)\n      swap1\n      dup2\n      add\n      0x40\n      mstore\n      dup1\n      swap3\n      swap2\n      swap1\n      dup2\n      dup2\n      mstore\n      0x20\n      add\n      dup3\n      dup1\n      sload\n      tag_46\n      swap1\n      tag_45\n      jump\t// in\n    tag_46:\n      dup1\n      iszero\n      tag_47\n      jumpi\n      dup1\n      0x1f\n      lt\n      tag_48\n      jumpi\n      0x0100\n      dup1\n      dup4\n      sload\n      div\n      mul\n      dup4\n      mstore\n      swap2\n      0x20\n      add\n      swap2\n      jump(tag_47)\n    tag_48:\n      dup3\n      add\n      swap2\n      swap1\n      0x00\n      mstore\n      keccak256(0x00, 0x20)\n      swap1\n    tag_49:\n      dup2\n      sload\n      dup2\n      mstore\n      swap1\n      0x01\n      add\n      swap1\n      0x20\n      add\n      dup1\n      dup4\n      gt\n      tag_49\n      jumpi\n      dup3\n      swap1\n      sub\n      0x1f\n      and\n      dup3\n      add\n      swap2\n    tag_47:\n      pop\n      pop\n      pop\n      pop\n      0x01\n      dup4\n      add\n      sload\n      0x02\n      swap1\n      swap4\n      add\n      sload\n      swap2\n      swap3\n      swap2\n      sub(shl(0xa0, 0x01), 0x01)\n      dup2\n      and\n      swap2\n      pop\n      shl(0xa0, 0x01)\n      swap1\n      div\n      0xff\n      and\n      dup5\n      jump\t// out\n        /* \"struct-Book.sol\":580:944  function buyBook () public payable  {... */\n    tag_16:\n        /* \"struct-Book.sol\":654:663  msg.value */\n      callvalue\n        /* \"struct-Book.sol\":634:652  toWei(Book1.price) */\n      tag_51\n        /* \"struct-Book.sol\":640:645  Book1 */\n      0x00\n        /* \"struct-Book.sol\":640:651  Book1.price */\n      0x01\n      add\n      sload\n        /* \"struct-Book.sol\":634:639  toWei */\n      tag_26\n        /* \"struct-Book.sol\":634:652  toWei(Book1.price) */\n      jump\t// in\n    tag_51:\n        /* \"struct-Book.sol\":634:663  toWei(Book1.price)<=msg.value */\n      gt\n      iszero\n        /* \"struct-Book.sol\":626:712  require(toWei(Book1.price)<=msg.value,\"book price is not correct, insufficient value\") */\n      tag_52\n      jumpi\n      mload(0x40)\n      shl(0xe5, 0x461bcd)\n      dup2\n      mstore\n        /* \"#utility.yul\":3513:3515   */\n      0x20\n        /* \"struct-Book.sol\":626:712  require(toWei(Book1.price)<=msg.value,\"book price is not correct, insufficient value\") */\n      0x04\n      dup3\n      add\n        /* \"#utility.yul\":3495:3516   */\n      mstore\n        /* \"#utility.yul\":3552:3554   */\n      0x2d\n        /* \"#utility.yul\":3532:3550   */\n      0x24\n      dup3\n      add\n        /* \"#utility.yul\":3525:3555   */\n      mstore\n        /* \"#utility.yul\":3591:3625   */\n      0x626f6f6b207072696365206973206e6f7420636f72726563742c20696e737566\n        /* \"#utility.yul\":3571:3589   */\n      0x44\n      dup3\n      add\n        /* \"#utility.yul\":3564:3626   */\n      mstore\n      shl(0x98, 0x66696369656e742076616c7565)\n        /* \"#utility.yul\":3642:3660   */\n      0x64\n      dup3\n      add\n        /* \"#utility.yul\":3635:3678   */\n      mstore\n        /* \"#utility.yul\":3695:3714   */\n      0x84\n      add\n        /* \"struct-Book.sol\":626:712  require(toWei(Book1.price)<=msg.value,\"book price is not correct, insufficient value\") */\n      mload(0x40)\n      dup1\n      swap2\n      sub\n      swap1\n      revert\n    tag_52:\n        /* \"struct-Book.sol\":738:749  Book1.owner */\n      0x02\n      dup1\n      sload\n        /* \"struct-Book.sol\":726:732  buyers */\n      0x03\n        /* \"struct-Book.sol\":726:750  buyers.push(Book1.owner) */\n      dup1\n      sload\n        /* \"struct-Book.sol\":738:749  Book1.owner */\n      0x01\n        /* \"struct-Book.sol\":726:750  buyers.push(Book1.owner) */\n      dup2\n      dup2\n      add\n      dup4\n      sstore\n        /* \"struct-Book.sol\":738:743  Book1 */\n      0x00\n        /* \"struct-Book.sol\":726:750  buyers.push(Book1.owner) */\n      swap3\n      dup4\n      mstore\n      0xc2575a0e9e593c00f959f8c92f12db2869c3395a3b0502d05e2516446f71f85b\n      swap1\n      swap2\n      add\n      dup1\n      sload\n      not(sub(shl(0xa0, 0x01), 0x01))\n      and\n      sub(shl(0xa0, 0x01), 0x01)\n        /* \"struct-Book.sol\":738:749  Book1.owner */\n      swap1\n      swap5\n      and\n        /* \"struct-Book.sol\":726:750  buyers.push(Book1.owner) */\n      swap4\n      swap1\n      swap4\n      or\n      swap1\n      swap3\n      sstore\n        /* \"struct-Book.sol\":764:779  Book1.sold=true */\n      dup3\n      sload\n      not(shl(0xa0, 0xff))\n      and\n      shl(0xa0, 0x01)\n      or\n      swap1\n      swap3\n      sstore\n        /* \"struct-Book.sol\":822:833  Book1.price */\n      sload\n        /* \"struct-Book.sol\":816:834  toWei(Book1.price) */\n      tag_56\n      swap1\n        /* \"struct-Book.sol\":816:821  toWei */\n      tag_26\n        /* \"struct-Book.sol\":816:834  toWei(Book1.price) */\n      jump\t// in\n    tag_56:\n        /* \"struct-Book.sol\":804:834  msg.value - toWei(Book1.price) */\n      tag_57\n      swap1\n        /* \"struct-Book.sol\":804:813  msg.value */\n      callvalue\n        /* \"struct-Book.sol\":804:834  msg.value - toWei(Book1.price) */\n      tag_58\n      jump\t// in\n    tag_57:\n        /* \"struct-Book.sol\":793:834  uint bal = msg.value - toWei(Book1.price) */\n      swap1\n      pop\n        /* \"struct-Book.sol\":851:856  bal>0 */\n      dup1\n      iszero\n        /* \"struct-Book.sol\":848:924  if(bal>0){... */\n      tag_59\n      jumpi\n        /* \"struct-Book.sol\":875:909  payable (msg.sender).transfer(bal) */\n      mload(0x40)\n        /* \"struct-Book.sol\":884:894  msg.sender */\n      caller\n      swap1\n        /* \"struct-Book.sol\":875:909  payable (msg.sender).transfer(bal) */\n      dup3\n      iszero\n      0x08fc\n      mul\n      swap1\n        /* \"struct-Book.sol\":905:908  bal */\n      dup4\n      swap1\n        /* \"struct-Book.sol\":875:909  payable (msg.sender).transfer(bal) */\n      0x00\n      dup2\n      dup2\n      dup2\n        /* \"struct-Book.sol\":905:908  bal */\n      dup6\n        /* \"struct-Book.sol\":884:894  msg.sender */\n      dup9\n        /* \"struct-Book.sol\":875:909  payable (msg.sender).transfer(bal) */\n      dup9\n      call\n      swap4\n      pop\n      pop\n      pop\n      pop\n      iszero\n      dup1\n      iszero\n      tag_61\n      jumpi\n      returndatasize\n      0x00\n      dup1\n      returndatacopy\n      revert(0x00, returndatasize)\n    tag_61:\n      pop\n        /* \"struct-Book.sol\":848:924  if(bal>0){... */\n    tag_59:\n        /* \"struct-Book.sol\":616:944  {... */\n      pop\n        /* \"struct-Book.sol\":580:944  function buyBook () public payable  {... */\n      jump\t// out\n        /* \"struct-Book.sol\":358:468  function getBook () public view returns (string memory,uint) {... */\n    tag_19:\n        /* \"struct-Book.sol\":449:460  Book1.price */\n      sload(0x01)\n        /* \"struct-Book.sol\":413:417  uint */\n      0x00\n        /* \"struct-Book.sol\":429:461  return (Book1.title,Book1.price) */\n      dup1\n      sload\n        /* \"struct-Book.sol\":399:412  string memory */\n      0x60\n      swap3\n        /* \"struct-Book.sol\":413:417  uint */\n      dup3\n      swap2\n      dup3\n      swap1\n        /* \"struct-Book.sol\":429:461  return (Book1.title,Book1.price) */\n      tag_63\n      swap1\n      tag_45\n      jump\t// in\n    tag_63:\n      dup1\n      0x1f\n      add\n      0x20\n      dup1\n      swap2\n      div\n      mul\n      0x20\n      add\n      mload(0x40)\n      swap1\n      dup2\n      add\n      0x40\n      mstore\n      dup1\n      swap3\n      swap2\n      swap1\n      dup2\n      dup2\n      mstore\n      0x20\n      add\n      dup3\n      dup1\n      sload\n      tag_64\n      swap1\n      tag_45\n      jump\t// in\n    tag_64:\n      dup1\n      iszero\n      tag_65\n      jumpi\n      dup1\n      0x1f\n      lt\n      tag_66\n      jumpi\n      0x0100\n      dup1\n      dup4\n      sload\n      div\n      mul\n      dup4\n      mstore\n      swap2\n      0x20\n      add\n      swap2\n      jump(tag_65)\n    tag_66:\n      dup3\n      add\n      swap2\n      swap1\n      0x00\n      mstore\n      keccak256(0x00, 0x20)\n      swap1\n    tag_67:\n      dup2\n      sload\n      dup2\n      mstore\n      swap1\n      0x01\n      add\n      swap1\n      0x20\n      add\n      dup1\n      dup4\n      gt\n      tag_67\n      jumpi\n      dup3\n      swap1\n      sub\n      0x1f\n      and\n      dup3\n      add\n      swap2\n    tag_65:\n      pop\n      pop\n      pop\n      pop\n      pop\n      swap2\n      pop\n      swap2\n      pop\n      swap2\n      pop\n        /* \"struct-Book.sol\":358:468  function getBook () public view returns (string memory,uint) {... */\n      swap1\n      swap2\n      jump\t// out\n        /* \"struct-Book.sol\":474:574  function toWei(uint amt) public pure returns(uint) {... */\n    tag_26:\n        /* \"struct-Book.sol\":519:523  uint */\n      0x00\n        /* \"struct-Book.sol\":543:566  amt*1000000000000000000 */\n      tag_69\n        /* \"struct-Book.sol\":543:546  amt */\n      dup3\n        /* \"struct-Book.sol\":547:566  1000000000000000000 */\n      0x0de0b6b3a7640000\n        /* \"struct-Book.sol\":543:566  amt*1000000000000000000 */\n      tag_70\n      jump\t// in\n    tag_69:\n        /* \"struct-Book.sol\":535:567  return (amt*1000000000000000000) */\n      swap3\n        /* \"struct-Book.sol\":474:574  function toWei(uint amt) public pure returns(uint) {... */\n      swap2\n      pop\n      pop\n      jump\t// out\n        /* \"struct-Book.sol\":246:352  function setBook (string memory x,uint y) public {... */\n    tag_33:\n        /* \"struct-Book.sol\":305:310  Book1 */\n      0x00\n        /* \"struct-Book.sol\":305:320  Book1.title = x */\n      tag_72\n        /* \"struct-Book.sol\":319:320  x */\n      dup4\n        /* \"struct-Book.sol\":305:310  Book1 */\n      dup3\n        /* \"struct-Book.sol\":305:320  Book1.title = x */\n      tag_73\n      jump\t// in\n    tag_72:\n      pop\n        /* \"struct-Book.sol\":330:341  Book1.price */\n      0x01\n        /* \"struct-Book.sol\":330:345  Book1.price = y */\n      sstore\n      pop\n        /* \"struct-Book.sol\":246:352  function setBook (string memory x,uint y) public {... */\n      jump\t// out\n        /* \"struct-Book.sol\":215:239  address [] public buyers */\n    tag_41:\n      0x03\n      dup2\n      dup2\n      sload\n      dup2\n      lt\n      tag_75\n      jumpi\n      0x00\n      dup1\n      revert\n    tag_75:\n      0x00\n      swap2\n      dup3\n      mstore\n      0x20\n      swap1\n      swap2\n      keccak256\n      add\n      sload\n      sub(shl(0xa0, 0x01), 0x01)\n      and\n      swap1\n      pop\n      dup2\n      jump\t// out\n        /* \"#utility.yul\":14:437   */\n    tag_77:\n        /* \"#utility.yul\":56:59   */\n      0x00\n        /* \"#utility.yul\":94:99   */\n      dup2\n        /* \"#utility.yul\":88:100   */\n      mload\n        /* \"#utility.yul\":121:127   */\n      dup1\n        /* \"#utility.yul\":116:119   */\n      dup5\n        /* \"#utility.yul\":109:128   */\n      mstore\n        /* \"#utility.yul\":146:147   */\n      0x00\n        /* \"#utility.yul\":156:318   */\n    tag_85:\n        /* \"#utility.yul\":170:176   */\n      dup2\n        /* \"#utility.yul\":167:168   */\n      dup2\n        /* \"#utility.yul\":164:177   */\n      lt\n        /* \"#utility.yul\":156:318   */\n      iszero\n      tag_87\n      jumpi\n        /* \"#utility.yul\":232:236   */\n      0x20\n        /* \"#utility.yul\":288:301   */\n      dup2\n      dup6\n      add\n        /* \"#utility.yul\":284:306   */\n      dup2\n      add\n        /* \"#utility.yul\":278:307   */\n      mload\n        /* \"#utility.yul\":260:271   */\n      dup7\n      dup4\n      add\n        /* \"#utility.yul\":256:276   */\n      dup3\n      add\n        /* \"#utility.yul\":249:308   */\n      mstore\n        /* \"#utility.yul\":185:197   */\n      add\n        /* \"#utility.yul\":156:318   */\n      jump(tag_85)\n    tag_87:\n        /* \"#utility.yul\":160:163   */\n      pop\n        /* \"#utility.yul\":363:364   */\n      0x00\n        /* \"#utility.yul\":356:360   */\n      0x20\n        /* \"#utility.yul\":347:353   */\n      dup3\n        /* \"#utility.yul\":342:345   */\n      dup7\n        /* \"#utility.yul\":338:354   */\n      add\n        /* \"#utility.yul\":334:361   */\n      add\n        /* \"#utility.yul\":327:365   */\n      mstore\n        /* \"#utility.yul\":426:430   */\n      0x20\n        /* \"#utility.yul\":419:421   */\n      0x1f\n        /* \"#utility.yul\":415:422   */\n      not\n        /* \"#utility.yul\":410:412   */\n      0x1f\n        /* \"#utility.yul\":402:408   */\n      dup4\n        /* \"#utility.yul\":398:413   */\n      add\n        /* \"#utility.yul\":394:423   */\n      and\n        /* \"#utility.yul\":389:392   */\n      dup6\n        /* \"#utility.yul\":385:424   */\n      add\n        /* \"#utility.yul\":381:431   */\n      add\n        /* \"#utility.yul\":374:431   */\n      swap2\n      pop\n      pop\n        /* \"#utility.yul\":14:437   */\n      swap3\n      swap2\n      pop\n      pop\n      jump\t// out\n        /* \"#utility.yul\":442:913   */\n    tag_14:\n        /* \"#utility.yul\":669:672   */\n      0x80\n        /* \"#utility.yul\":658:667   */\n      dup2\n        /* \"#utility.yul\":651:673   */\n      mstore\n        /* \"#utility.yul\":632:636   */\n      0x00\n        /* \"#utility.yul\":690:736   */\n      tag_89\n        /* \"#utility.yul\":731:734   */\n      0x80\n        /* \"#utility.yul\":720:729   */\n      dup4\n        /* \"#utility.yul\":716:735   */\n      add\n        /* \"#utility.yul\":708:714   */\n      dup8\n        /* \"#utility.yul\":690:736   */\n      tag_77\n      jump\t// in\n    tag_89:\n        /* \"#utility.yul\":767:769   */\n      0x20\n        /* \"#utility.yul\":752:770   */\n      dup4\n      add\n        /* \"#utility.yul\":745:779   */\n      swap6\n      swap1\n      swap6\n      mstore\n      pop\n      sub(shl(0xa0, 0x01), 0x01)\n        /* \"#utility.yul\":815:847   */\n      swap3\n      swap1\n      swap3\n      and\n        /* \"#utility.yul\":810:812   */\n      0x40\n        /* \"#utility.yul\":795:813   */\n      dup4\n      add\n        /* \"#utility.yul\":788:848   */\n      mstore\n        /* \"#utility.yul\":891:905   */\n      iszero\n        /* \"#utility.yul\":884:906   */\n      iszero\n        /* \"#utility.yul\":879:881   */\n      0x60\n        /* \"#utility.yul\":864:882   */\n      swap1\n      swap2\n      add\n        /* \"#utility.yul\":857:907   */\n      mstore\n        /* \"#utility.yul\":682:736   */\n      swap2\n        /* \"#utility.yul\":442:913   */\n      swap1\n      pop\n      jump\t// out\n        /* \"#utility.yul\":918:1209   */\n    tag_21:\n        /* \"#utility.yul\":1095:1097   */\n      0x40\n        /* \"#utility.yul\":1084:1093   */\n      dup2\n        /* \"#utility.yul\":1077:1098   */\n      mstore\n        /* \"#utility.yul\":1058:1062   */\n      0x00\n        /* \"#utility.yul\":1115:1160   */\n      tag_91\n        /* \"#utility.yul\":1156:1158   */\n      0x40\n        /* \"#utility.yul\":1145:1154   */\n      dup4\n        /* \"#utility.yul\":1141:1159   */\n      add\n        /* \"#utility.yul\":1133:1139   */\n      dup6\n        /* \"#utility.yul\":1115:1160   */\n      tag_77\n      jump\t// in\n    tag_91:\n        /* \"#utility.yul\":1107:1160   */\n      swap1\n      pop\n        /* \"#utility.yul\":1196:1202   */\n      dup3\n        /* \"#utility.yul\":1191:1193   */\n      0x20\n        /* \"#utility.yul\":1180:1189   */\n      dup4\n        /* \"#utility.yul\":1176:1194   */\n      add\n        /* \"#utility.yul\":1169:1203   */\n      mstore\n        /* \"#utility.yul\":918:1209   */\n      swap4\n      swap3\n      pop\n      pop\n      pop\n      jump\t// out\n        /* \"#utility.yul\":1214:1394   */\n    tag_25:\n        /* \"#utility.yul\":1273:1279   */\n      0x00\n        /* \"#utility.yul\":1326:1328   */\n      0x20\n        /* \"#utility.yul\":1314:1323   */\n      dup3\n        /* \"#utility.yul\":1305:1312   */\n      dup5\n        /* \"#utility.yul\":1301:1324   */\n      sub\n        /* \"#utility.yul\":1297:1329   */\n      slt\n        /* \"#utility.yul\":1294:1346   */\n      iszero\n      tag_93\n      jumpi\n        /* \"#utility.yul\":1342:1343   */\n      0x00\n        /* \"#utility.yul\":1339:1340   */\n      dup1\n        /* \"#utility.yul\":1332:1344   */\n      revert\n        /* \"#utility.yul\":1294:1346   */\n    tag_93:\n      pop\n        /* \"#utility.yul\":1365:1388   */\n      calldataload\n      swap2\n        /* \"#utility.yul\":1214:1394   */\n      swap1\n      pop\n      jump\t// out\n        /* \"#utility.yul\":1581:1708   */\n    tag_78:\n        /* \"#utility.yul\":1642:1652   */\n      0x4e487b71\n        /* \"#utility.yul\":1637:1640   */\n      0xe0\n        /* \"#utility.yul\":1633:1653   */\n      shl\n        /* \"#utility.yul\":1630:1631   */\n      0x00\n        /* \"#utility.yul\":1623:1654   */\n      mstore\n        /* \"#utility.yul\":1673:1677   */\n      0x41\n        /* \"#utility.yul\":1670:1671   */\n      0x04\n        /* \"#utility.yul\":1663:1678   */\n      mstore\n        /* \"#utility.yul\":1697:1701   */\n      0x24\n        /* \"#utility.yul\":1694:1695   */\n      0x00\n        /* \"#utility.yul\":1687:1702   */\n      revert\n        /* \"#utility.yul\":1713:2713   */\n    tag_32:\n        /* \"#utility.yul\":1791:1797   */\n      0x00\n        /* \"#utility.yul\":1799:1805   */\n      dup1\n        /* \"#utility.yul\":1852:1854   */\n      0x40\n        /* \"#utility.yul\":1840:1849   */\n      dup4\n        /* \"#utility.yul\":1831:1838   */\n      dup6\n        /* \"#utility.yul\":1827:1850   */\n      sub\n        /* \"#utility.yul\":1823:1855   */\n      slt\n        /* \"#utility.yul\":1820:1872   */\n      iszero\n      tag_97\n      jumpi\n        /* \"#utility.yul\":1868:1869   */\n      0x00\n        /* \"#utility.yul\":1865:1866   */\n      dup1\n        /* \"#utility.yul\":1858:1870   */\n      revert\n        /* \"#utility.yul\":1820:1872   */\n    tag_97:\n        /* \"#utility.yul\":1908:1917   */\n      dup3\n        /* \"#utility.yul\":1895:1918   */\n      calldataload\n        /* \"#utility.yul\":1937:1955   */\n      0xffffffffffffffff\n        /* \"#utility.yul\":1978:1980   */\n      dup1\n        /* \"#utility.yul\":1970:1976   */\n      dup3\n        /* \"#utility.yul\":1967:1981   */\n      gt\n        /* \"#utility.yul\":1964:1998   */\n      iszero\n      tag_98\n      jumpi\n        /* \"#utility.yul\":1994:1995   */\n      0x00\n        /* \"#utility.yul\":1991:1992   */\n      dup1\n        /* \"#utility.yul\":1984:1996   */\n      revert\n        /* \"#utility.yul\":1964:1998   */\n    tag_98:\n        /* \"#utility.yul\":2032:2038   */\n      dup2\n        /* \"#utility.yul\":2021:2030   */\n      dup6\n        /* \"#utility.yul\":2017:2039   */\n      add\n        /* \"#utility.yul\":2007:2039   */\n      swap2\n      pop\n        /* \"#utility.yul\":2077:2084   */\n      dup6\n        /* \"#utility.yul\":2070:2074   */\n      0x1f\n        /* \"#utility.yul\":2066:2068   */\n      dup4\n        /* \"#utility.yul\":2062:2075   */\n      add\n        /* \"#utility.yul\":2058:2085   */\n      slt\n        /* \"#utility.yul\":2048:2103   */\n      tag_99\n      jumpi\n        /* \"#utility.yul\":2099:2100   */\n      0x00\n        /* \"#utility.yul\":2096:2097   */\n      dup1\n        /* \"#utility.yul\":2089:2101   */\n      revert\n        /* \"#utility.yul\":2048:2103   */\n    tag_99:\n        /* \"#utility.yul\":2135:2137   */\n      dup2\n        /* \"#utility.yul\":2122:2138   */\n      calldataload\n        /* \"#utility.yul\":2157:2159   */\n      dup2\n        /* \"#utility.yul\":2153:2155   */\n      dup2\n        /* \"#utility.yul\":2150:2160   */\n      gt\n        /* \"#utility.yul\":2147:2183   */\n      iszero\n      tag_101\n      jumpi\n        /* \"#utility.yul\":2163:2181   */\n      tag_101\n      tag_78\n      jump\t// in\n    tag_101:\n        /* \"#utility.yul\":2238:2240   */\n      0x40\n        /* \"#utility.yul\":2232:2241   */\n      mload\n        /* \"#utility.yul\":2206:2208   */\n      0x1f\n        /* \"#utility.yul\":2292:2305   */\n      dup3\n      add\n      not(0x1f)\n        /* \"#utility.yul\":2288:2310   */\n      swap1\n      dup2\n      and\n        /* \"#utility.yul\":2312:2314   */\n      0x3f\n        /* \"#utility.yul\":2284:2315   */\n      add\n        /* \"#utility.yul\":2280:2320   */\n      and\n        /* \"#utility.yul\":2268:2321   */\n      dup2\n      add\n      swap1\n        /* \"#utility.yul\":2336:2354   */\n      dup4\n      dup3\n      gt\n        /* \"#utility.yul\":2356:2378   */\n      dup2\n      dup4\n      lt\n        /* \"#utility.yul\":2333:2379   */\n      or\n        /* \"#utility.yul\":2330:2402   */\n      iszero\n      tag_103\n      jumpi\n        /* \"#utility.yul\":2382:2400   */\n      tag_103\n      tag_78\n      jump\t// in\n    tag_103:\n        /* \"#utility.yul\":2422:2432   */\n      dup2\n        /* \"#utility.yul\":2418:2420   */\n      0x40\n        /* \"#utility.yul\":2411:2433   */\n      mstore\n        /* \"#utility.yul\":2457:2459   */\n      dup3\n        /* \"#utility.yul\":2449:2455   */\n      dup2\n        /* \"#utility.yul\":2442:2460   */\n      mstore\n        /* \"#utility.yul\":2499:2506   */\n      dup9\n        /* \"#utility.yul\":2492:2496   */\n      0x20\n        /* \"#utility.yul\":2487:2489   */\n      dup5\n        /* \"#utility.yul\":2483:2485   */\n      dup8\n        /* \"#utility.yul\":2479:2490   */\n      add\n        /* \"#utility.yul\":2475:2497   */\n      add\n        /* \"#utility.yul\":2472:2507   */\n      gt\n        /* \"#utility.yul\":2469:2524   */\n      iszero\n      tag_104\n      jumpi\n        /* \"#utility.yul\":2520:2521   */\n      0x00\n        /* \"#utility.yul\":2517:2518   */\n      dup1\n        /* \"#utility.yul\":2510:2522   */\n      revert\n        /* \"#utility.yul\":2469:2524   */\n    tag_104:\n        /* \"#utility.yul\":2580:2582   */\n      dup3\n        /* \"#utility.yul\":2573:2577   */\n      0x20\n        /* \"#utility.yul\":2569:2571   */\n      dup7\n        /* \"#utility.yul\":2565:2578   */\n      add\n        /* \"#utility.yul\":2558:2562   */\n      0x20\n        /* \"#utility.yul\":2550:2556   */\n      dup4\n        /* \"#utility.yul\":2546:2563   */\n      add\n        /* \"#utility.yul\":2533:2583   */\n      calldatacopy\n        /* \"#utility.yul\":2627:2628   */\n      0x00\n        /* \"#utility.yul\":2620:2624   */\n      0x20\n        /* \"#utility.yul\":2603:2618   */\n      swap4\n      dup3\n      add\n        /* \"#utility.yul\":2599:2625   */\n      dup5\n      add\n        /* \"#utility.yul\":2592:2629   */\n      mstore\n        /* \"#utility.yul\":2603:2618   */\n      swap9\n        /* \"#utility.yul\":2686:2706   */\n      swap7\n      swap1\n      swap2\n      add\n        /* \"#utility.yul\":2673:2707   */\n      calldataload\n      swap7\n      pop\n      pop\n      pop\n      pop\n      pop\n      pop\n        /* \"#utility.yul\":1713:2713   */\n      jump\t// out\n        /* \"#utility.yul\":2926:3306   */\n    tag_45:\n        /* \"#utility.yul\":3005:3006   */\n      0x01\n        /* \"#utility.yul\":3001:3013   */\n      dup2\n      dup2\n      shr\n      swap1\n        /* \"#utility.yul\":3048:3060   */\n      dup3\n      and\n      dup1\n        /* \"#utility.yul\":3069:3130   */\n      tag_107\n      jumpi\n        /* \"#utility.yul\":3123:3127   */\n      0x7f\n        /* \"#utility.yul\":3115:3121   */\n      dup3\n        /* \"#utility.yul\":3111:3128   */\n      and\n        /* \"#utility.yul\":3101:3128   */\n      swap2\n      pop\n        /* \"#utility.yul\":3069:3130   */\n    tag_107:\n        /* \"#utility.yul\":3176:3178   */\n      0x20\n        /* \"#utility.yul\":3168:3174   */\n      dup3\n        /* \"#utility.yul\":3165:3179   */\n      lt\n        /* \"#utility.yul\":3145:3163   */\n      dup2\n        /* \"#utility.yul\":3142:3180   */\n      sub\n        /* \"#utility.yul\":3139:3300   */\n      tag_108\n      jumpi\n        /* \"#utility.yul\":3222:3232   */\n      0x4e487b71\n        /* \"#utility.yul\":3217:3220   */\n      0xe0\n        /* \"#utility.yul\":3213:3233   */\n      shl\n        /* \"#utility.yul\":3210:3211   */\n      0x00\n        /* \"#utility.yul\":3203:3234   */\n      mstore\n        /* \"#utility.yul\":3257:3261   */\n      0x22\n        /* \"#utility.yul\":3254:3255   */\n      0x04\n        /* \"#utility.yul\":3247:3262   */\n      mstore\n        /* \"#utility.yul\":3285:3289   */\n      0x24\n        /* \"#utility.yul\":3282:3283   */\n      0x00\n        /* \"#utility.yul\":3275:3290   */\n      revert\n        /* \"#utility.yul\":3139:3300   */\n    tag_108:\n      pop\n        /* \"#utility.yul\":2926:3306   */\n      swap2\n      swap1\n      pop\n      jump\t// out\n        /* \"#utility.yul\":3725:3852   */\n    tag_79:\n        /* \"#utility.yul\":3786:3796   */\n      0x4e487b71\n        /* \"#utility.yul\":3781:3784   */\n      0xe0\n        /* \"#utility.yul\":3777:3797   */\n      shl\n        /* \"#utility.yul\":3774:3775   */\n      0x00\n        /* \"#utility.yul\":3767:3798   */\n      mstore\n        /* \"#utility.yul\":3817:3821   */\n      0x11\n        /* \"#utility.yul\":3814:3815   */\n      0x04\n        /* \"#utility.yul\":3807:3822   */\n      mstore\n        /* \"#utility.yul\":3841:3845   */\n      0x24\n        /* \"#utility.yul\":3838:3839   */\n      0x00\n        /* \"#utility.yul\":3831:3846   */\n      revert\n        /* \"#utility.yul\":3857:3985   */\n    tag_58:\n        /* \"#utility.yul\":3924:3933   */\n      dup2\n      dup2\n      sub\n        /* \"#utility.yul\":3945:3956   */\n      dup2\n      dup2\n      gt\n        /* \"#utility.yul\":3942:3979   */\n      iszero\n      tag_69\n      jumpi\n        /* \"#utility.yul\":3959:3977   */\n      tag_69\n      tag_79\n      jump\t// in\n        /* \"#utility.yul\":3990:4158   */\n    tag_70:\n        /* \"#utility.yul\":4063:4072   */\n      dup1\n      dup3\n      mul\n        /* \"#utility.yul\":4094:4103   */\n      dup2\n      iszero\n        /* \"#utility.yul\":4111:4126   */\n      dup3\n      dup3\n      div\n        /* \"#utility.yul\":4105:4127   */\n      dup5\n      eq\n        /* \"#utility.yul\":4091:4128   */\n      or\n        /* \"#utility.yul\":4081:4152   */\n      tag_69\n      jumpi\n        /* \"#utility.yul\":4132:4150   */\n      tag_69\n      tag_79\n      jump\t// in\n        /* \"#utility.yul\":4289:4834   */\n    tag_81:\n        /* \"#utility.yul\":4391:4393   */\n      0x1f\n        /* \"#utility.yul\":4386:4389   */\n      dup3\n        /* \"#utility.yul\":4383:4394   */\n      gt\n        /* \"#utility.yul\":4380:4828   */\n      iszero\n      tag_119\n      jumpi\n        /* \"#utility.yul\":4427:4428   */\n      0x00\n        /* \"#utility.yul\":4452:4457   */\n      dup2\n        /* \"#utility.yul\":4448:4450   */\n      dup2\n        /* \"#utility.yul\":4441:4458   */\n      mstore\n        /* \"#utility.yul\":4497:4501   */\n      0x20\n        /* \"#utility.yul\":4493:4495   */\n      dup2\n        /* \"#utility.yul\":4483:4502   */\n      keccak256\n        /* \"#utility.yul\":4567:4569   */\n      0x1f\n        /* \"#utility.yul\":4555:4565   */\n      dup6\n        /* \"#utility.yul\":4551:4570   */\n      add\n        /* \"#utility.yul\":4548:4549   */\n      0x05\n        /* \"#utility.yul\":4544:4571   */\n      shr\n        /* \"#utility.yul\":4538:4542   */\n      dup2\n        /* \"#utility.yul\":4534:4572   */\n      add\n        /* \"#utility.yul\":4603:4607   */\n      0x20\n        /* \"#utility.yul\":4591:4601   */\n      dup7\n        /* \"#utility.yul\":4588:4608   */\n      lt\n        /* \"#utility.yul\":4585:4632   */\n      iszero\n      tag_120\n      jumpi\n      pop\n        /* \"#utility.yul\":4626:4630   */\n      dup1\n        /* \"#utility.yul\":4585:4632   */\n    tag_120:\n        /* \"#utility.yul\":4681:4683   */\n      0x1f\n        /* \"#utility.yul\":4676:4679   */\n      dup6\n        /* \"#utility.yul\":4672:4684   */\n      add\n        /* \"#utility.yul\":4669:4670   */\n      0x05\n        /* \"#utility.yul\":4665:4685   */\n      shr\n        /* \"#utility.yul\":4659:4663   */\n      dup3\n        /* \"#utility.yul\":4655:4686   */\n      add\n        /* \"#utility.yul\":4645:4686   */\n      swap2\n      pop\n        /* \"#utility.yul\":4736:4818   */\n    tag_121:\n        /* \"#utility.yul\":4754:4756   */\n      dup2\n        /* \"#utility.yul\":4747:4752   */\n      dup2\n        /* \"#utility.yul\":4744:4757   */\n      lt\n        /* \"#utility.yul\":4736:4818   */\n      iszero\n      tag_123\n      jumpi\n        /* \"#utility.yul\":4799:4816   */\n      dup3\n      dup2\n      sstore\n        /* \"#utility.yul\":4780:4781   */\n      0x01\n        /* \"#utility.yul\":4769:4782   */\n      add\n        /* \"#utility.yul\":4736:4818   */\n      jump(tag_121)\n    tag_123:\n        /* \"#utility.yul\":4740:4743   */\n      pop\n      pop\n      pop\n        /* \"#utility.yul\":4380:4828   */\n    tag_119:\n        /* \"#utility.yul\":4289:4834   */\n      pop\n      pop\n      pop\n      jump\t// out\n        /* \"#utility.yul\":5010:6362   */\n    tag_73:\n        /* \"#utility.yul\":5136:5139   */\n      dup2\n        /* \"#utility.yul\":5130:5140   */\n      mload\n        /* \"#utility.yul\":5163:5181   */\n      0xffffffffffffffff\n        /* \"#utility.yul\":5155:5161   */\n      dup2\n        /* \"#utility.yul\":5152:5182   */\n      gt\n        /* \"#utility.yul\":5149:5205   */\n      iszero\n      tag_127\n      jumpi\n        /* \"#utility.yul\":5185:5203   */\n      tag_127\n      tag_78\n      jump\t// in\n    tag_127:\n        /* \"#utility.yul\":5214:5311   */\n      tag_128\n        /* \"#utility.yul\":5304:5310   */\n      dup2\n        /* \"#utility.yul\":5264:5302   */\n      tag_129\n        /* \"#utility.yul\":5296:5300   */\n      dup5\n        /* \"#utility.yul\":5290:5301   */\n      sload\n        /* \"#utility.yul\":5264:5302   */\n      tag_45\n      jump\t// in\n    tag_129:\n        /* \"#utility.yul\":5258:5262   */\n      dup5\n        /* \"#utility.yul\":5214:5311   */\n      tag_81\n      jump\t// in\n    tag_128:\n        /* \"#utility.yul\":5366:5370   */\n      0x20\n      dup1\n        /* \"#utility.yul\":5430:5432   */\n      0x1f\n        /* \"#utility.yul\":5419:5433   */\n      dup4\n      gt\n        /* \"#utility.yul\":5447:5448   */\n      0x01\n        /* \"#utility.yul\":5442:6105   */\n      dup2\n      eq\n      tag_131\n      jumpi\n        /* \"#utility.yul\":6149:6150   */\n      0x00\n        /* \"#utility.yul\":6166:6172   */\n      dup5\n        /* \"#utility.yul\":6163:6252   */\n      iszero\n      tag_132\n      jumpi\n      pop\n        /* \"#utility.yul\":6218:6237   */\n      dup6\n      dup4\n      add\n        /* \"#utility.yul\":6212:6238   */\n      mload\n        /* \"#utility.yul\":6163:6252   */\n    tag_132:\n      not(0x00)\n        /* \"#utility.yul\":4967:4968   */\n      0x03\n        /* \"#utility.yul\":4963:4974   */\n      dup7\n      swap1\n      shl\n        /* \"#utility.yul\":4959:4983   */\n      shr\n        /* \"#utility.yul\":4955:4984   */\n      not\n        /* \"#utility.yul\":4945:4985   */\n      and\n        /* \"#utility.yul\":4991:4992   */\n      0x01\n        /* \"#utility.yul\":4987:4998   */\n      dup6\n      swap1\n      shl\n        /* \"#utility.yul\":4942:4999   */\n      or\n        /* \"#utility.yul\":6265:6346   */\n      dup6\n      sstore\n        /* \"#utility.yul\":5412:6356   */\n      jump(tag_123)\n        /* \"#utility.yul\":5442:6105   */\n    tag_131:\n        /* \"#utility.yul\":4236:4237   */\n      0x00\n        /* \"#utility.yul\":4229:4243   */\n      dup6\n      dup2\n      mstore\n        /* \"#utility.yul\":4273:4277   */\n      0x20\n        /* \"#utility.yul\":4260:4278   */\n      dup2\n      keccak256\n      not(0x1f)\n        /* \"#utility.yul\":5478:5498   */\n      dup7\n      and\n      swap2\n        /* \"#utility.yul\":5596:5832   */\n    tag_135:\n        /* \"#utility.yul\":5610:5617   */\n      dup3\n        /* \"#utility.yul\":5607:5608   */\n      dup2\n        /* \"#utility.yul\":5604:5618   */\n      lt\n        /* \"#utility.yul\":5596:5832   */\n      iszero\n      tag_137\n      jumpi\n        /* \"#utility.yul\":5699:5718   */\n      dup9\n      dup7\n      add\n        /* \"#utility.yul\":5693:5719   */\n      mload\n        /* \"#utility.yul\":5678:5720   */\n      dup3\n      sstore\n        /* \"#utility.yul\":5791:5818   */\n      swap5\n      dup5\n      add\n      swap5\n        /* \"#utility.yul\":5759:5760   */\n      0x01\n        /* \"#utility.yul\":5747:5761   */\n      swap1\n      swap2\n      add\n      swap1\n        /* \"#utility.yul\":5626:5645   */\n      dup5\n      add\n        /* \"#utility.yul\":5596:5832   */\n      jump(tag_135)\n    tag_137:\n        /* \"#utility.yul\":5600:5603   */\n      pop\n        /* \"#utility.yul\":5860:5866   */\n      dup6\n        /* \"#utility.yul\":5851:5858   */\n      dup3\n        /* \"#utility.yul\":5848:5867   */\n      lt\n        /* \"#utility.yul\":5845:6046   */\n      iszero\n      tag_138\n      jumpi\n        /* \"#utility.yul\":5921:5940   */\n      dup8\n      dup6\n      add\n        /* \"#utility.yul\":5915:5941   */\n      mload\n      not(0x00)\n        /* \"#utility.yul\":6004:6005   */\n      0x03\n        /* \"#utility.yul\":6000:6014   */\n      dup9\n      swap1\n      shl\n        /* \"#utility.yul\":6016:6019   */\n      0xf8\n        /* \"#utility.yul\":5996:6020   */\n      and\n        /* \"#utility.yul\":5992:6029   */\n      shr\n        /* \"#utility.yul\":5988:6030   */\n      not\n        /* \"#utility.yul\":5973:6031   */\n      and\n        /* \"#utility.yul\":5958:6032   */\n      dup2\n      sstore\n        /* \"#utility.yul\":5845:6046   */\n    tag_138:\n      pop\n      pop\n      pop\n      pop\n      pop\n        /* \"#utility.yul\":6092:6093   */\n      0x01\n        /* \"#utility.yul\":6076:6090   */\n      swap1\n      dup2\n      shl\n        /* \"#utility.yul\":6072:6094   */\n      add\n        /* \"#utility.yul\":6059:6095   */\n      swap1\n      sstore\n      pop\n        /* \"#utility.yul\":5010:6362   */\n      jump\t// out\n\n    auxdata: 0xa2646970667358221220a6cfcb9eddeb7c0bdfae4fb6791080cd55e8542f99088c34fc25c6422805bf7764736f6c63430008140033\n}\n",
				"bytecode": {
					"linkReferences": {},
					"object": "608060405234801561000f575f80fd5b506107568061001d5f395ff3fe60806040526004361061006e575f3560e01c8063669dafe81161004c578063669dafe8146100cb578063808f0114146100f8578063ba49a08c14610117578063f2aa82181461012b575f80fd5b806310c35eb914610072578063189a55e71461009f5780633b0c197e146100a9575b5f80fd5b34801561007d575f80fd5b50610086610162565b604051610096949392919061046c565b60405180910390f35b6100a7610212565b005b3480156100b4575f80fd5b506100bd61033a565b6040516100969291906104a5565b3480156100d6575f80fd5b506100ea6100e53660046104c6565b6103d6565b604051908152602001610096565b348015610103575f80fd5b506100a76101123660046104f1565b6103ef565b348015610122575f80fd5b506003546100ea565b348015610136575f80fd5b5061014a6101453660046104c6565b610401565b6040516001600160a01b039091168152602001610096565b5f80548190610170906105a0565b80601f016020809104026020016040519081016040528092919081815260200182805461019c906105a0565b80156101e75780601f106101be576101008083540402835291602001916101e7565b820191905f5260205f20905b8154815290600101906020018083116101ca57829003601f168201915b5050505060018301546002909301549192916001600160a01b0381169150600160a01b900460ff1684565b346102205f600101546103d6565b11156102885760405162461bcd60e51b815260206004820152602d60248201527f626f6f6b207072696365206973206e6f7420636f72726563742c20696e73756660448201526c66696369656e742076616c756560981b606482015260840160405180910390fd5b6002805460038054600181810183555f9283527fc2575a0e9e593c00f959f8c92f12db2869c3395a3b0502d05e2516446f71f85b90910180546001600160a01b0319166001600160a01b0390941693909317909255825460ff60a01b1916600160a01b17909255546102f9906103d6565b61030390346105ec565b9050801561033757604051339082156108fc029083905f818181858888f19350505050158015610335573d5f803e3d5ffd5b505b50565b6001545f805460609282918290610350906105a0565b80601f016020809104026020016040519081016040528092919081815260200182805461037c906105a0565b80156103c75780601f1061039e576101008083540402835291602001916103c7565b820191905f5260205f20905b8154815290600101906020018083116103aa57829003601f168201915b50505050509150915091509091565b5f6103e982670de0b6b3a76400006105ff565b92915050565b5f6103fa8382610664565b5060015550565b60038181548110610410575f80fd5b5f918252602090912001546001600160a01b0316905081565b5f81518084525f5b8181101561044d57602081850181015186830182015201610431565b505f602082860101526020601f19601f83011685010191505092915050565b608081525f61047e6080830187610429565b6020830195909552506001600160a01b039290921660408301521515606090910152919050565b604081525f6104b76040830185610429565b90508260208301529392505050565b5f602082840312156104d6575f80fd5b5035919050565b634e487b7160e01b5f52604160045260245ffd5b5f8060408385031215610502575f80fd5b823567ffffffffffffffff80821115610519575f80fd5b818501915085601f83011261052c575f80fd5b81358181111561053e5761053e6104dd565b604051601f8201601f19908116603f01168101908382118183101715610566576105666104dd565b8160405282815288602084870101111561057e575f80fd5b826020860160208301375f602093820184015298969091013596505050505050565b600181811c908216806105b457607f821691505b6020821081036105d257634e487b7160e01b5f52602260045260245ffd5b50919050565b634e487b7160e01b5f52601160045260245ffd5b818103818111156103e9576103e96105d8565b80820281158282048414176103e9576103e96105d8565b601f82111561065f575f81815260208120601f850160051c8101602086101561063c5750805b601f850160051c820191505b8181101561065b57828155600101610648565b5050505b505050565b815167ffffffffffffffff81111561067e5761067e6104dd565b6106928161068c84546105a0565b84610616565b602080601f8311600181146106c5575f84156106ae5750858301515b5f19600386901b1c1916600185901b17855561065b565b5f85815260208120601f198616915b828110156106f3578886015182559484019460019091019084016106d4565b508582101561071057878501515f19600388901b60f8161c191681555b5050505050600190811b0190555056fea2646970667358221220a6cfcb9eddeb7c0bdfae4fb6791080cd55e8542f99088c34fc25c6422805bf7764736f6c63430008140033",
					"opcodes": "PUSH1 0x80 PUSH1 0x40 MSTORE CALLVALUE DUP1 ISZERO PUSH2 0xF JUMPI PUSH0 DUP1 REVERT JUMPDEST POP PUSH2 0x756 DUP1 PUSH2 0x1D PUSH0 CODECOPY PUSH0 RETURN INVALID PUSH1 0x80 PUSH1 0x40 MSTORE PUSH1 0x4 CALLDATASIZE LT PUSH2 0x6E JUMPI PUSH0 CALLDATALOAD PUSH1 0xE0 SHR DUP1 PUSH4 0x669DAFE8 GT PUSH2 0x4C JUMPI DUP1 PUSH4 0x669DAFE8 EQ PUSH2 0xCB JUMPI DUP1 PUSH4 0x808F0114 EQ PUSH2 0xF8 JUMPI DUP1 PUSH4 0xBA49A08C EQ PUSH2 0x117 JUMPI DUP1 PUSH4 0xF2AA8218 EQ PUSH2 0x12B JUMPI PUSH0 DUP1 REVERT JUMPDEST DUP1 PUSH4 0x10C35EB9 EQ PUSH2 0x72 JUMPI DUP1 PUSH4 0x189A55E7 EQ PUSH2 0x9F JUMPI DUP1 PUSH4 0x3B0C197E EQ PUSH2 0xA9 JUMPI JUMPDEST PUSH0 DUP1 REVERT JUMPDEST CALLVALUE DUP1 ISZERO PUSH2 0x7D JUMPI PUSH0 DUP1 REVERT JUMPDEST POP PUSH2 0x86 PUSH2 0x162 JUMP JUMPDEST PUSH1 0x40 MLOAD PUSH2 0x96 SWAP5 SWAP4 SWAP3 SWAP2 SWAP1 PUSH2 0x46C JUMP JUMPDEST PUSH1 0x40 MLOAD DUP1 SWAP2 SUB SWAP1 RETURN JUMPDEST PUSH2 0xA7 PUSH2 0x212 JUMP JUMPDEST STOP JUMPDEST CALLVALUE DUP1 ISZERO PUSH2 0xB4 JUMPI PUSH0 DUP1 REVERT JUMPDEST POP PUSH2 0xBD PUSH2 0x33A JUMP JUMPDEST PUSH1 0x40 MLOAD PUSH2 0x96 SWAP3 SWAP2 SWAP1 PUSH2 0x4A5 JUMP JUMPDEST CALLVALUE DUP1 ISZERO PUSH2 0xD6 JUMPI PUSH0 DUP1 REVERT JUMPDEST POP PUSH2 0xEA PUSH2 0xE5 CALLDATASIZE PUSH1 0x4 PUSH2 0x4C6 JUMP JUMPDEST PUSH2 0x3D6 JUMP JUMPDEST PUSH1 0x40 MLOAD SWAP1 DUP2 MSTORE PUSH1 0x20 ADD PUSH2 0x96 JUMP JUMPDEST CALLVALUE DUP1 ISZERO PUSH2 0x103 JUMPI PUSH0 DUP1 REVERT JUMPDEST POP PUSH2 0xA7 PUSH2 0x112 CALLDATASIZE PUSH1 0x4 PUSH2 0x4F1 JUMP JUMPDEST PUSH2 0x3EF JUMP JUMPDEST CALLVALUE DUP1 ISZERO PUSH2 0x122 JUMPI PUSH0 DUP1 REVERT JUMPDEST POP PUSH1 0x3 SLOAD PUSH2 0xEA JUMP JUMPDEST CALLVALUE DUP1 ISZERO PUSH2 0x136 JUMPI PUSH0 DUP1 REVERT JUMPDEST POP PUSH2 0x14A PUSH2 0x145 CALLDATASIZE PUSH1 0x4 PUSH2 0x4C6 JUMP JUMPDEST PUSH2 0x401 JUMP JUMPDEST PUSH1 0x40 MLOAD PUSH1 0x1 PUSH1 0x1 PUSH1 0xA0 SHL SUB SWAP1 SWAP2 AND DUP2 MSTORE PUSH1 0x20 ADD PUSH2 0x96 JUMP JUMPDEST PUSH0 DUP1 SLOAD DUP2 SWAP1 PUSH2 0x170 SWAP1 PUSH2 0x5A0 JUMP JUMPDEST DUP1 PUSH1 0x1F ADD PUSH1 0x20 DUP1 SWAP2 DIV MUL PUSH1 0x20 ADD PUSH1 0x40 MLOAD SWAP1 DUP2 ADD PUSH1 0x40 MSTORE DUP1 SWAP3 SWAP2 SWAP1 DUP2 DUP2 MSTORE PUSH1 0x20 ADD DUP3 DUP1 SLOAD PUSH2 0x19C SWAP1 PUSH2 0x5A0 JUMP JUMPDEST DUP1 ISZERO PUSH2 0x1E7 JUMPI DUP1 PUSH1 0x1F LT PUSH2 0x1BE JUMPI PUSH2 0x100 DUP1 DUP4 SLOAD DIV MUL DUP4 MSTORE SWAP2 PUSH1 0x20 ADD SWAP2 PUSH2 0x1E7 JUMP JUMPDEST DUP3 ADD SWAP2 SWAP1 PUSH0 MSTORE PUSH1 0x20 PUSH0 KECCAK256 SWAP1 JUMPDEST DUP2 SLOAD DUP2 MSTORE SWAP1 PUSH1 0x1 ADD SWAP1 PUSH1 0x20 ADD DUP1 DUP4 GT PUSH2 0x1CA JUMPI DUP3 SWAP1 SUB PUSH1 0x1F AND DUP3 ADD SWAP2 JUMPDEST POP POP POP POP PUSH1 0x1 DUP4 ADD SLOAD PUSH1 0x2 SWAP1 SWAP4 ADD SLOAD SWAP2 SWAP3 SWAP2 PUSH1 0x1 PUSH1 0x1 PUSH1 0xA0 SHL SUB DUP2 AND SWAP2 POP PUSH1 0x1 PUSH1 0xA0 SHL SWAP1 DIV PUSH1 0xFF AND DUP5 JUMP JUMPDEST CALLVALUE PUSH2 0x220 PUSH0 PUSH1 0x1 ADD SLOAD PUSH2 0x3D6 JUMP JUMPDEST GT ISZERO PUSH2 0x288 JUMPI PUSH1 0x40 MLOAD PUSH3 0x461BCD PUSH1 0xE5 SHL DUP2 MSTORE PUSH1 0x20 PUSH1 0x4 DUP3 ADD MSTORE PUSH1 0x2D PUSH1 0x24 DUP3 ADD MSTORE PUSH32 0x626F6F6B207072696365206973206E6F7420636F72726563742C20696E737566 PUSH1 0x44 DUP3 ADD MSTORE PUSH13 0x66696369656E742076616C7565 PUSH1 0x98 SHL PUSH1 0x64 DUP3 ADD MSTORE PUSH1 0x84 ADD PUSH1 0x40 MLOAD DUP1 SWAP2 SUB SWAP1 REVERT JUMPDEST PUSH1 0x2 DUP1 SLOAD PUSH1 0x3 DUP1 SLOAD PUSH1 0x1 DUP2 DUP2 ADD DUP4 SSTORE PUSH0 SWAP3 DUP4 MSTORE PUSH32 0xC2575A0E9E593C00F959F8C92F12DB2869C3395A3B0502D05E2516446F71F85B SWAP1 SWAP2 ADD DUP1 SLOAD PUSH1 0x1 PUSH1 0x1 PUSH1 0xA0 SHL SUB NOT AND PUSH1 0x1 PUSH1 0x1 PUSH1 0xA0 SHL SUB SWAP1 SWAP5 AND SWAP4 SWAP1 SWAP4 OR SWAP1 SWAP3 SSTORE DUP3 SLOAD PUSH1 0xFF PUSH1 0xA0 SHL NOT AND PUSH1 0x1 PUSH1 0xA0 SHL OR SWAP1 SWAP3 SSTORE SLOAD PUSH2 0x2F9 SWAP1 PUSH2 0x3D6 JUMP JUMPDEST PUSH2 0x303 SWAP1 CALLVALUE PUSH2 0x5EC JUMP JUMPDEST SWAP1 POP DUP1 ISZERO PUSH2 0x337 JUMPI PUSH1 0x40 MLOAD CALLER SWAP1 DUP3 ISZERO PUSH2 0x8FC MUL SWAP1 DUP4 SWAP1 PUSH0 DUP2 DUP2 DUP2 DUP6 DUP9 DUP9 CALL SWAP4 POP POP POP POP ISZERO DUP1 ISZERO PUSH2 0x335 JUMPI RETURNDATASIZE PUSH0 DUP1 RETURNDATACOPY RETURNDATASIZE PUSH0 REVERT JUMPDEST POP JUMPDEST POP JUMP JUMPDEST PUSH1 0x1 SLOAD PUSH0 DUP1 SLOAD PUSH1 0x60 SWAP3 DUP3 SWAP2 DUP3 SWAP1 PUSH2 0x350 SWAP1 PUSH2 0x5A0 JUMP JUMPDEST DUP1 PUSH1 0x1F ADD PUSH1 0x20 DUP1 SWAP2 DIV MUL PUSH1 0x20 ADD PUSH1 0x40 MLOAD SWAP1 DUP2 ADD PUSH1 0x40 MSTORE DUP1 SWAP3 SWAP2 SWAP1 DUP2 DUP2 MSTORE PUSH1 0x20 ADD DUP3 DUP1 SLOAD PUSH2 0x37C SWAP1 PUSH2 0x5A0 JUMP JUMPDEST DUP1 ISZERO PUSH2 0x3C7 JUMPI DUP1 PUSH1 0x1F LT PUSH2 0x39E JUMPI PUSH2 0x100 DUP1 DUP4 SLOAD DIV MUL DUP4 MSTORE SWAP2 PUSH1 0x20 ADD SWAP2 PUSH2 0x3C7 JUMP JUMPDEST DUP3 ADD SWAP2 SWAP1 PUSH0 MSTORE PUSH1 0x20 PUSH0 KECCAK256 SWAP1 JUMPDEST DUP2 SLOAD DUP2 MSTORE SWAP1 PUSH1 0x1 ADD SWAP1 PUSH1 0x20 ADD DUP1 DUP4 GT PUSH2 0x3AA JUMPI DUP3 SWAP1 SUB PUSH1 0x1F AND DUP3 ADD SWAP2 JUMPDEST POP POP POP POP POP SWAP2 POP SWAP2 POP SWAP2 POP SWAP1 SWAP2 JUMP JUMPDEST PUSH0 PUSH2 0x3E9 DUP3 PUSH8 0xDE0B6B3A7640000 PUSH2 0x5FF JUMP JUMPDEST SWAP3 SWAP2 POP POP JUMP JUMPDEST PUSH0 PUSH2 0x3FA DUP4 DUP3 PUSH2 0x664 JUMP JUMPDEST POP PUSH1 0x1 SSTORE POP JUMP JUMPDEST PUSH1 0x3 DUP2 DUP2 SLOAD DUP2 LT PUSH2 0x410 JUMPI PUSH0 DUP1 REVERT JUMPDEST PUSH0 SWAP2 DUP3 MSTORE PUSH1 0x20 SWAP1 SWAP2 KECCAK256 ADD SLOAD PUSH1 0x1 PUSH1 0x1 PUSH1 0xA0 SHL SUB AND SWAP1 POP DUP2 JUMP JUMPDEST PUSH0 DUP2 MLOAD DUP1 DUP5 MSTORE PUSH0 JUMPDEST DUP2 DUP2 LT ISZERO PUSH2 0x44D JUMPI PUSH1 0x20 DUP2 DUP6 ADD DUP2 ADD MLOAD DUP7 DUP4 ADD DUP3 ADD MSTORE ADD PUSH2 0x431 JUMP JUMPDEST POP PUSH0 PUSH1 0x20 DUP3 DUP7 ADD ADD MSTORE PUSH1 0x20 PUSH1 0x1F NOT PUSH1 0x1F DUP4 ADD AND DUP6 ADD ADD SWAP2 POP POP SWAP3 SWAP2 POP POP JUMP JUMPDEST PUSH1 0x80 DUP2 MSTORE PUSH0 PUSH2 0x47E PUSH1 0x80 DUP4 ADD DUP8 PUSH2 0x429 JUMP JUMPDEST PUSH1 0x20 DUP4 ADD SWAP6 SWAP1 SWAP6 MSTORE POP PUSH1 0x1 PUSH1 0x1 PUSH1 0xA0 SHL SUB SWAP3 SWAP1 SWAP3 AND PUSH1 0x40 DUP4 ADD MSTORE ISZERO ISZERO PUSH1 0x60 SWAP1 SWAP2 ADD MSTORE SWAP2 SWAP1 POP JUMP JUMPDEST PUSH1 0x40 DUP2 MSTORE PUSH0 PUSH2 0x4B7 PUSH1 0x40 DUP4 ADD DUP6 PUSH2 0x429 JUMP JUMPDEST SWAP1 POP DUP3 PUSH1 0x20 DUP4 ADD MSTORE SWAP4 SWAP3 POP POP POP JUMP JUMPDEST PUSH0 PUSH1 0x20 DUP3 DUP5 SUB SLT ISZERO PUSH2 0x4D6 JUMPI PUSH0 DUP1 REVERT JUMPDEST POP CALLDATALOAD SWAP2 SWAP1 POP JUMP JUMPDEST PUSH4 0x4E487B71 PUSH1 0xE0 SHL PUSH0 MSTORE PUSH1 0x41 PUSH1 0x4 MSTORE PUSH1 0x24 PUSH0 REVERT JUMPDEST PUSH0 DUP1 PUSH1 0x40 DUP4 DUP6 SUB SLT ISZERO PUSH2 0x502 JUMPI PUSH0 DUP1 REVERT JUMPDEST DUP3 CALLDATALOAD PUSH8 0xFFFFFFFFFFFFFFFF DUP1 DUP3 GT ISZERO PUSH2 0x519 JUMPI PUSH0 DUP1 REVERT JUMPDEST DUP2 DUP6 ADD SWAP2 POP DUP6 PUSH1 0x1F DUP4 ADD SLT PUSH2 0x52C JUMPI PUSH0 DUP1 REVERT JUMPDEST DUP2 CALLDATALOAD DUP2 DUP2 GT ISZERO PUSH2 0x53E JUMPI PUSH2 0x53E PUSH2 0x4DD JUMP JUMPDEST PUSH1 0x40 MLOAD PUSH1 0x1F DUP3 ADD PUSH1 0x1F NOT SWAP1 DUP2 AND PUSH1 0x3F ADD AND DUP2 ADD SWAP1 DUP4 DUP3 GT DUP2 DUP4 LT OR ISZERO PUSH2 0x566 JUMPI PUSH2 0x566 PUSH2 0x4DD JUMP JUMPDEST DUP2 PUSH1 0x40 MSTORE DUP3 DUP2 MSTORE DUP9 PUSH1 0x20 DUP5 DUP8 ADD ADD GT ISZERO PUSH2 0x57E JUMPI PUSH0 DUP1 REVERT JUMPDEST DUP3 PUSH1 0x20 DUP7 ADD PUSH1 0x20 DUP4 ADD CALLDATACOPY PUSH0 PUSH1 0x20 SWAP4 DUP3 ADD DUP5 ADD MSTORE SWAP9 SWAP7 SWAP1 SWAP2 ADD CALLDATALOAD SWAP7 POP POP POP POP POP POP JUMP JUMPDEST PUSH1 0x1 DUP2 DUP2 SHR SWAP1 DUP3 AND DUP1 PUSH2 0x5B4 JUMPI PUSH1 0x7F DUP3 AND SWAP2 POP JUMPDEST PUSH1 0x20 DUP3 LT DUP2 SUB PUSH2 0x5D2 JUMPI PUSH4 0x4E487B71 PUSH1 0xE0 SHL PUSH0 MSTORE PUSH1 0x22 PUSH1 0x4 MSTORE PUSH1 0x24 PUSH0 REVERT JUMPDEST POP SWAP2 SWAP1 POP JUMP JUMPDEST PUSH4 0x4E487B71 PUSH1 0xE0 SHL PUSH0 MSTORE PUSH1 0x11 PUSH1 0x4 MSTORE PUSH1 0x24 PUSH0 REVERT JUMPDEST DUP2 DUP2 SUB DUP2 DUP2 GT ISZERO PUSH2 0x3E9 JUMPI PUSH2 0x3E9 PUSH2 0x5D8 JUMP JUMPDEST DUP1 DUP3 MUL DUP2 ISZERO DUP3 DUP3 DIV DUP5 EQ OR PUSH2 0x3E9 JUMPI PUSH2 0x3E9 PUSH2 0x5D8 JUMP JUMPDEST PUSH1 0x1F DUP3 GT ISZERO PUSH2 0x65F JUMPI PUSH0 DUP2 DUP2 MSTORE PUSH1 0x20 DUP2 KECCAK256 PUSH1 0x1F DUP6 ADD PUSH1 0x5 SHR DUP2 ADD PUSH1 0x20 DUP7 LT ISZERO PUSH2 0x63C JUMPI POP DUP1 JUMPDEST PUSH1 0x1F DUP6 ADD PUSH1 0x5 SHR DUP3 ADD SWAP2 POP JUMPDEST DUP2 DUP2 LT ISZERO PUSH2 0x65B JUMPI DUP3 DUP2 SSTORE PUSH1 0x1 ADD PUSH2 0x648 JUMP JUMPDEST POP POP POP JUMPDEST POP POP POP JUMP JUMPDEST DUP2 MLOAD PUSH8 0xFFFFFFFFFFFFFFFF DUP2 GT ISZERO PUSH2 0x67E JUMPI PUSH2 0x67E PUSH2 0x4DD JUMP JUMPDEST PUSH2 0x692 DUP2 PUSH2 0x68C DUP5 SLOAD PUSH2 0x5A0 JUMP JUMPDEST DUP5 PUSH2 0x616 JUMP JUMPDEST PUSH1 0x20 DUP1 PUSH1 0x1F DUP4 GT PUSH1 0x1 DUP2 EQ PUSH2 0x6C5 JUMPI PUSH0 DUP5 ISZERO PUSH2 0x6AE JUMPI POP DUP6 DUP4 ADD MLOAD JUMPDEST PUSH0 NOT PUSH1 0x3 DUP7 SWAP1 SHL SHR NOT AND PUSH1 0x1 DUP6 SWAP1 SHL OR DUP6 SSTORE PUSH2 0x65B JUMP JUMPDEST PUSH0 DUP6 DUP2 MSTORE PUSH1 0x20 DUP2 KECCAK256 PUSH1 0x1F NOT DUP7 AND SWAP2 JUMPDEST DUP3 DUP2 LT ISZERO PUSH2 0x6F3 JUMPI DUP9 DUP7 ADD MLOAD DUP3 SSTORE SWAP5 DUP5 ADD SWAP5 PUSH1 0x1 SWAP1 SWAP2 ADD SWAP1 DUP5 ADD PUSH2 0x6D4 JUMP JUMPDEST POP DUP6 DUP3 LT ISZERO PUSH2 0x710 JUMPI DUP8 DUP6 ADD MLOAD PUSH0 NOT PUSH1 0x3 DUP9 SWAP1 SHL PUSH1 0xF8 AND SHR NOT AND DUP2 SSTORE JUMPDEST POP POP POP POP POP PUSH1 0x1 SWAP1 DUP2 SHL ADD SWAP1 SSTORE POP JUMP INVALID LOG2 PUSH5 0x6970667358 0x22 SLT KECCAK256 0xA6 0xCF 0xCB SWAP15 0xDD 0xEB PUSH29 0xBDFAE4FB6791080CD55E8542F99088C34FC25C6422805BF7764736F6C PUSH4 0x43000814 STOP CALLER "
				},
				"gasEstimates": {
					"creation": {
						"codeDepositCost": "375600",
						"executionCost": "409",
						"totalCost": "376009"
					},
					"external": {
						"Book1()": "infinite",
						"buyBook()": "infinite",
						"buyers(uint256)": "4677",
						"buyersCount()": "2335",
						"getBook()": "infinite",
						"setBook(string,uint256)": "infinite",
						"toWei(uint256)": "infinite"
					}
				},
				"methodIdentifiers": {
					"Book1()": "10c35eb9",
					"buyBook()": "189a55e7",
					"buyers(uint256)": "f2aa8218",
					"buyersCount()": "ba49a08c",
					"getBook()": "3b0c197e",
					"setBook(string,uint256)": "808f0114",
					"toWei(uint256)": "669dafe8"
				}
			},
			"storageLayout": {
				"storage": [
					{
						"astId": 13,
						"contract": "struct-Book.sol:Books",
						"label": "Book1",
						"offset": 0,
						"slot": "0",
						"type": "t_struct(MyBook)10_storage"
					},
					{
						"astId": 16,
						"contract": "struct-Book.sol:Books",
						"label": "buyers",
						"offset": 0,
						"slot": "3",
						"type": "t_array(t_address)dyn_storage"
					}
				],
				"types": {
					"t_address": {
						"encoding": "inplace",
						"label": "address",
						"numberOfBytes": "20"
					},
					"t_array(t_address)dyn_storage": {
						"base": "t_address",
						"encoding": "dynamic_array",
						"label": "address[]",
						"numberOfBytes": "32"
					},
					"t_bool": {
						"encoding": "inplace",
						"label": "bool",
						"numberOfBytes": "1"
					},
					"t_string_storage": {
						"encoding": "bytes",
						"label": "string",
						"numberOfBytes": "32"
					},
					"t_struct(MyBook)10_storage": {
						"encoding": "inplace",
						"label": "struct Books.MyBook",
						"members": [
							{
								"astId": 3,
								"contract": "struct-Book.sol:Books",
								"label": "title",
								"offset": 0,
								"slot": "0",
								"type": "t_string_storage"
							},
							{
								"astId": 5,
								"contract": "struct-Book.sol:Books",
								"label": "price",
								"offset": 0,
								"slot": "1",
								"type": "t_uint256"
							},
							{
								"astId": 7,
								"contract": "struct-Book.sol:Books",
								"label": "owner",
								"offset": 0,
								"slot": "2",
								"type": "t_address"
							},
							{
								"astId": 9,
								"contract": "struct-Book.sol:Books",
								"label": "sold",
								"offset": 20,
								"slot": "2",
								"type": "t_bool"
							}
						],
						"numberOfBytes": "96"
					},
					"t_uint256": {
						"encoding": "inplace",
						"label": "uint256",
						"numberOfBytes": "32"
					}
				}
			},
			"userdoc": {
				"kind": "user",
				"methods": {},
				"version": 1
			}
		}
	}
}