{
	"data": {
		"bytecode": {
			"linkReferences": {},
			"object": "608060405234801561000f575f80fd5b50610cdf8061001d5f395ff3fe608060405260043610610085575f3560e01c8063808f011411610058578063808f0114146101245780638da5cb5b1461014c578063a035b1fe14610176578063ba49a08c146101a0578063f2aa8218146101ca57610085565b8063189a55e7146100895780633b0c197e146100935780634a79d50c146100be578063669dafe8146100e8575b5f80fd5b610091610206565b005b34801561009e575f80fd5b506100a7610398565b6040516100b5929190610606565b60405180910390f35b3480156100c9575f80fd5b506100d2610431565b6040516100df9190610634565b60405180910390f35b3480156100f3575f80fd5b5061010e6004803603810190610109919061068f565b6104bc565b60405161011b91906106ba565b60405180910390f35b34801561012f575f80fd5b5061014a600480360381019061014591906107ff565b6104d8565b005b348015610157575f80fd5b506101606104f2565b60405161016d9190610898565b60405180910390f35b348015610181575f80fd5b5061018a610517565b60405161019791906106ba565b60405180910390f35b3480156101ab575f80fd5b506101b461051d565b6040516101c191906106ba565b60405180910390f35b3480156101d5575f80fd5b506101f060048036038101906101eb919061068f565b610529565b6040516101fd9190610898565b60405180910390f35b346102126001546104bc565b1115610253576040517f08c379a000000000000000000000000000000000000000000000000000000000815260040161024a90610921565b60405180910390fd5b3360025f6101000a81548173ffffffffffffffffffffffffffffffffffffffff021916908373ffffffffffffffffffffffffffffffffffffffff160217905550600360025f9054906101000a900473ffffffffffffffffffffffffffffffffffffffff16908060018154018082558091505060019003905f5260205f20015f9091909190916101000a81548173ffffffffffffffffffffffffffffffffffffffff021916908373ffffffffffffffffffffffffffffffffffffffff1602179055506001600260146101000a81548160ff0219169083151502179055505f61033b6001546104bc565b34610346919061096c565b90505f811115610395573373ffffffffffffffffffffffffffffffffffffffff166108fc8290811502906040515f60405180830381858888f19350505050158015610393573d5f803e3d5ffd5b505b50565b60605f806001548180546103ab906109cc565b80601f01602080910402602001604051908101604052809291908181526020018280546103d7906109cc565b80156104225780601f106103f957610100808354040283529160200191610422565b820191905f5260205f20905b81548152906001019060200180831161040557829003601f168201915b50505050509150915091509091565b5f805461043d906109cc565b80601f0160208091040260200160405190810160405280929190818152602001828054610469906109cc565b80156104b45780601f1061048b576101008083540402835291602001916104b4565b820191905f5260205f20905b81548152906001019060200180831161049757829003601f168201915b505050505081565b5f670de0b6b3a7640000826104d191906109fc565b9050919050565b815f90816104e69190610bda565b50806001819055505050565b60025f9054906101000a900473ffffffffffffffffffffffffffffffffffffffff1681565b60015481565b5f600380549050905090565b60038181548110610538575f80fd5b905f5260205f20015f915054906101000a900473ffffffffffffffffffffffffffffffffffffffff1681565b5f81519050919050565b5f82825260208201905092915050565b5f5b8381101561059b578082015181840152602081019050610580565b5f8484015250505050565b5f601f19601f8301169050919050565b5f6105c082610564565b6105ca818561056e565b93506105da81856020860161057e565b6105e3816105a6565b840191505092915050565b5f819050919050565b610600816105ee565b82525050565b5f6040820190508181035f83015261061e81856105b6565b905061062d60208301846105f7565b9392505050565b5f6020820190508181035f83015261064c81846105b6565b905092915050565b5f604051905090565b5f80fd5b5f80fd5b61066e816105ee565b8114610678575f80fd5b50565b5f8135905061068981610665565b92915050565b5f602082840312156106a4576106a361065d565b5b5f6106b18482850161067b565b91505092915050565b5f6020820190506106cd5f8301846105f7565b92915050565b5f80fd5b5f80fd5b7f4e487b71000000000000000000000000000000000000000000000000000000005f52604160045260245ffd5b610711826105a6565b810181811067ffffffffffffffff821117156107305761072f6106db565b5b80604052505050565b5f610742610654565b905061074e8282610708565b919050565b5f67ffffffffffffffff82111561076d5761076c6106db565b5b610776826105a6565b9050602081019050919050565b828183375f83830152505050565b5f6107a361079e84610753565b610739565b9050828152602081018484840111156107bf576107be6106d7565b5b6107ca848285610783565b509392505050565b5f82601f8301126107e6576107e56106d3565b5b81356107f6848260208601610791565b91505092915050565b5f80604083850312156108155761081461065d565b5b5f83013567ffffffffffffffff81111561083257610831610661565b5b61083e858286016107d2565b925050602061084f8582860161067b565b9150509250929050565b5f73ffffffffffffffffffffffffffffffffffffffff82169050919050565b5f61088282610859565b9050919050565b61089281610878565b82525050565b5f6020820190506108ab5f830184610889565b92915050565b7f626f6f6b207072696365206973206e6f7420636f72726563742c20696e7375665f8201527f66696369656e742076616c756500000000000000000000000000000000000000602082015250565b5f61090b602d8361056e565b9150610916826108b1565b604082019050919050565b5f6020820190508181035f830152610938816108ff565b9050919050565b7f4e487b71000000000000000000000000000000000000000000000000000000005f52601160045260245ffd5b5f610976826105ee565b9150610981836105ee565b92508282039050818111156109995761099861093f565b5b92915050565b7f4e487b71000000000000000000000000000000000000000000000000000000005f52602260045260245ffd5b5f60028204905060018216806109e357607f821691505b6020821081036109f6576109f561099f565b5b50919050565b5f610a06826105ee565b9150610a11836105ee565b9250828202610a1f816105ee565b91508282048414831517610a3657610a3561093f565b5b5092915050565b5f819050815f5260205f209050919050565b5f6020601f8301049050919050565b5f82821b905092915050565b5f60088302610a997fffffffffffffffffffffffffffffffffffffffffffffffffffffffffffffffff82610a5e565b610aa38683610a5e565b95508019841693508086168417925050509392505050565b5f819050919050565b5f610ade610ad9610ad4846105ee565b610abb565b6105ee565b9050919050565b5f819050919050565b610af783610ac4565b610b0b610b0382610ae5565b848454610a6a565b825550505050565b5f90565b610b1f610b13565b610b2a818484610aee565b505050565b5b81811015610b4d57610b425f82610b17565b600181019050610b30565b5050565b601f821115610b9257610b6381610a3d565b610b6c84610a4f565b81016020851015610b7b578190505b610b8f610b8785610a4f565b830182610b2f565b50505b505050565b5f82821c905092915050565b5f610bb25f1984600802610b97565b1980831691505092915050565b5f610bca8383610ba3565b9150826002028217905092915050565b610be382610564565b67ffffffffffffffff811115610bfc57610bfb6106db565b5b610c0682546109cc565b610c11828285610b51565b5f60209050601f831160018114610c42575f8415610c30578287015190505b610c3a8582610bbf565b865550610ca1565b601f198416610c5086610a3d565b5f5b82811015610c7757848901518255600182019150602085019450602081019050610c52565b86831015610c945784890151610c90601f891682610ba3565b8355505b6001600288020188555050505b50505050505056fea26469706673582212200c89cf3ab572b3fc896152c6fd7a2a6f9e863f5c3736c134ba972f6c5d03d42a64736f6c63430008140033",
			"opcodes": "PUSH1 0x80 PUSH1 0x40 MSTORE CALLVALUE DUP1 ISZERO PUSH2 0xF JUMPI PUSH0 DUP1 REVERT JUMPDEST POP PUSH2 0xCDF DUP1 PUSH2 0x1D PUSH0 CODECOPY PUSH0 RETURN INVALID PUSH1 0x80 PUSH1 0x40 MSTORE PUSH1 0x4 CALLDATASIZE LT PUSH2 0x85 JUMPI PUSH0 CALLDATALOAD PUSH1 0xE0 SHR DUP1 PUSH4 0x808F0114 GT PUSH2 0x58 JUMPI DUP1 PUSH4 0x808F0114 EQ PUSH2 0x124 JUMPI DUP1 PUSH4 0x8DA5CB5B EQ PUSH2 0x14C JUMPI DUP1 PUSH4 0xA035B1FE EQ PUSH2 0x176 JUMPI DUP1 PUSH4 0xBA49A08C EQ PUSH2 0x1A0 JUMPI DUP1 PUSH4 0xF2AA8218 EQ PUSH2 0x1CA JUMPI PUSH2 0x85 JUMP JUMPDEST DUP1 PUSH4 0x189A55E7 EQ PUSH2 0x89 JUMPI DUP1 PUSH4 0x3B0C197E EQ PUSH2 0x93 JUMPI DUP1 PUSH4 0x4A79D50C EQ PUSH2 0xBE JUMPI DUP1 PUSH4 0x669DAFE8 EQ PUSH2 0xE8 JUMPI JUMPDEST PUSH0 DUP1 REVERT JUMPDEST PUSH2 0x91 PUSH2 0x206 JUMP JUMPDEST STOP JUMPDEST CALLVALUE DUP1 ISZERO PUSH2 0x9E JUMPI PUSH0 DUP1 REVERT JUMPDEST POP PUSH2 0xA7 PUSH2 0x398 JUMP JUMPDEST PUSH1 0x40 MLOAD PUSH2 0xB5 SWAP3 SWAP2 SWAP1 PUSH2 0x606 JUMP JUMPDEST PUSH1 0x40 MLOAD DUP1 SWAP2 SUB SWAP1 RETURN JUMPDEST CALLVALUE DUP1 ISZERO PUSH2 0xC9 JUMPI PUSH0 DUP1 REVERT JUMPDEST POP PUSH2 0xD2 PUSH2 0x431 JUMP JUMPDEST PUSH1 0x40 MLOAD PUSH2 0xDF SWAP2 SWAP1 PUSH2 0x634 JUMP JUMPDEST PUSH1 0x40 MLOAD DUP1 SWAP2 SUB SWAP1 RETURN JUMPDEST CALLVALUE DUP1 ISZERO PUSH2 0xF3 JUMPI PUSH0 DUP1 REVERT JUMPDEST POP PUSH2 0x10E PUSH1 0x4 DUP1 CALLDATASIZE SUB DUP2 ADD SWAP1 PUSH2 0x109 SWAP2 SWAP1 PUSH2 0x68F JUMP JUMPDEST PUSH2 0x4BC JUMP JUMPDEST PUSH1 0x40 MLOAD PUSH2 0x11B SWAP2 SWAP1 PUSH2 0x6BA JUMP JUMPDEST PUSH1 0x40 MLOAD DUP1 SWAP2 SUB SWAP1 RETURN JUMPDEST CALLVALUE DUP1 ISZERO PUSH2 0x12F JUMPI PUSH0 DUP1 REVERT JUMPDEST POP PUSH2 0x14A PUSH1 0x4 DUP1 CALLDATASIZE SUB DUP2 ADD SWAP1 PUSH2 0x145 SWAP2 SWAP1 PUSH2 0x7FF JUMP JUMPDEST PUSH2 0x4D8 JUMP JUMPDEST STOP JUMPDEST CALLVALUE DUP1 ISZERO PUSH2 0x157 JUMPI PUSH0 DUP1 REVERT JUMPDEST POP PUSH2 0x160 PUSH2 0x4F2 JUMP JUMPDEST PUSH1 0x40 MLOAD PUSH2 0x16D SWAP2 SWAP1 PUSH2 0x898 JUMP JUMPDEST PUSH1 0x40 MLOAD DUP1 SWAP2 SUB SWAP1 RETURN JUMPDEST CALLVALUE DUP1 ISZERO PUSH2 0x181 JUMPI PUSH0 DUP1 REVERT JUMPDEST POP PUSH2 0x18A PUSH2 0x517 JUMP JUMPDEST PUSH1 0x40 MLOAD PUSH2 0x197 SWAP2 SWAP1 PUSH2 0x6BA JUMP JUMPDEST PUSH1 0x40 MLOAD DUP1 SWAP2 SUB SWAP1 RETURN JUMPDEST CALLVALUE DUP1 ISZERO PUSH2 0x1AB JUMPI PUSH0 DUP1 REVERT JUMPDEST POP PUSH2 0x1B4 PUSH2 0x51D JUMP JUMPDEST PUSH1 0x40 MLOAD PUSH2 0x1C1 SWAP2 SWAP1 PUSH2 0x6BA JUMP JUMPDEST PUSH1 0x40 MLOAD DUP1 SWAP2 SUB SWAP1 RETURN JUMPDEST CALLVALUE DUP1 ISZERO PUSH2 0x1D5 JUMPI PUSH0 DUP1 REVERT JUMPDEST POP PUSH2 0x1F0 PUSH1 0x4 DUP1 CALLDATASIZE SUB DUP2 ADD SWAP1 PUSH2 0x1EB SWAP2 SWAP1 PUSH2 0x68F JUMP JUMPDEST PUSH2 0x529 JUMP JUMPDEST PUSH1 0x40 MLOAD PUSH2 0x1FD SWAP2 SWAP1 PUSH2 0x898 JUMP JUMPDEST PUSH1 0x40 MLOAD DUP1 SWAP2 SUB SWAP1 RETURN JUMPDEST CALLVALUE PUSH2 0x212 PUSH1 0x1 SLOAD PUSH2 0x4BC JUMP JUMPDEST GT ISZERO PUSH2 0x253 JUMPI PUSH1 0x40 MLOAD PUSH32 0x8C379A000000000000000000000000000000000000000000000000000000000 DUP2 MSTORE PUSH1 0x4 ADD PUSH2 0x24A SWAP1 PUSH2 0x921 JUMP JUMPDEST PUSH1 0x40 MLOAD DUP1 SWAP2 SUB SWAP1 REVERT JUMPDEST CALLER PUSH1 0x2 PUSH0 PUSH2 0x100 EXP DUP2 SLOAD DUP2 PUSH20 0xFFFFFFFFFFFFFFFFFFFFFFFFFFFFFFFFFFFFFFFF MUL NOT AND SWAP1 DUP4 PUSH20 0xFFFFFFFFFFFFFFFFFFFFFFFFFFFFFFFFFFFFFFFF AND MUL OR SWAP1 SSTORE POP PUSH1 0x3 PUSH1 0x2 PUSH0 SWAP1 SLOAD SWAP1 PUSH2 0x100 EXP SWAP1 DIV PUSH20 0xFFFFFFFFFFFFFFFFFFFFFFFFFFFFFFFFFFFFFFFF AND SWAP1 DUP1 PUSH1 0x1 DUP2 SLOAD ADD DUP1 DUP3 SSTORE DUP1 SWAP2 POP POP PUSH1 0x1 SWAP1 SUB SWAP1 PUSH0 MSTORE PUSH1 0x20 PUSH0 KECCAK256 ADD PUSH0 SWAP1 SWAP2 SWAP1 SWAP2 SWAP1 SWAP2 PUSH2 0x100 EXP DUP2 SLOAD DUP2 PUSH20 0xFFFFFFFFFFFFFFFFFFFFFFFFFFFFFFFFFFFFFFFF MUL NOT AND SWAP1 DUP4 PUSH20 0xFFFFFFFFFFFFFFFFFFFFFFFFFFFFFFFFFFFFFFFF AND MUL OR SWAP1 SSTORE POP PUSH1 0x1 PUSH1 0x2 PUSH1 0x14 PUSH2 0x100 EXP DUP2 SLOAD DUP2 PUSH1 0xFF MUL NOT AND SWAP1 DUP4 ISZERO ISZERO MUL OR SWAP1 SSTORE POP PUSH0 PUSH2 0x33B PUSH1 0x1 SLOAD PUSH2 0x4BC JUMP JUMPDEST CALLVALUE PUSH2 0x346 SWAP2 SWAP1 PUSH2 0x96C JUMP JUMPDEST SWAP1 POP PUSH0 DUP2 GT ISZERO PUSH2 0x395 JUMPI CALLER PUSH20 0xFFFFFFFFFFFFFFFFFFFFFFFFFFFFFFFFFFFFFFFF AND PUSH2 0x8FC DUP3 SWAP1 DUP2 ISZERO MUL SWAP1 PUSH1 0x40 MLOAD PUSH0 PUSH1 0x40 MLOAD DUP1 DUP4 SUB DUP2 DUP6 DUP9 DUP9 CALL SWAP4 POP POP POP POP ISZERO DUP1 ISZERO PUSH2 0x393 JUMPI RETURNDATASIZE PUSH0 DUP1 RETURNDATACOPY RETURNDATASIZE PUSH0 REVERT JUMPDEST POP JUMPDEST POP JUMP JUMPDEST PUSH1 0x60 PUSH0 DUP1 PUSH1 0x1 SLOAD DUP2 DUP1 SLOAD PUSH2 0x3AB SWAP1 PUSH2 0x9CC JUMP JUMPDEST DUP1 PUSH1 0x1F ADD PUSH1 0x20 DUP1 SWAP2 DIV MUL PUSH1 0x20 ADD PUSH1 0x40 MLOAD SWAP1 DUP2 ADD PUSH1 0x40 MSTORE DUP1 SWAP3 SWAP2 SWAP1 DUP2 DUP2 MSTORE PUSH1 0x20 ADD DUP3 DUP1 SLOAD PUSH2 0x3D7 SWAP1 PUSH2 0x9CC JUMP JUMPDEST DUP1 ISZERO PUSH2 0x422 JUMPI DUP1 PUSH1 0x1F LT PUSH2 0x3F9 JUMPI PUSH2 0x100 DUP1 DUP4 SLOAD DIV MUL DUP4 MSTORE SWAP2 PUSH1 0x20 ADD SWAP2 PUSH2 0x422 JUMP JUMPDEST DUP3 ADD SWAP2 SWAP1 PUSH0 MSTORE PUSH1 0x20 PUSH0 KECCAK256 SWAP1 JUMPDEST DUP2 SLOAD DUP2 MSTORE SWAP1 PUSH1 0x1 ADD SWAP1 PUSH1 0x20 ADD DUP1 DUP4 GT PUSH2 0x405 JUMPI DUP3 SWAP1 SUB PUSH1 0x1F AND DUP3 ADD SWAP2 JUMPDEST POP POP POP POP POP SWAP2 POP SWAP2 POP SWAP2 POP SWAP1 SWAP2 JUMP JUMPDEST PUSH0 DUP1 SLOAD PUSH2 0x43D SWAP1 PUSH2 0x9CC JUMP JUMPDEST DUP1 PUSH1 0x1F ADD PUSH1 0x20 DUP1 SWAP2 DIV MUL PUSH1 0x20 ADD PUSH1 0x40 MLOAD SWAP1 DUP2 ADD PUSH1 0x40 MSTORE DUP1 SWAP3 SWAP2 SWAP1 DUP2 DUP2 MSTORE PUSH1 0x20 ADD DUP3 DUP1 SLOAD PUSH2 0x469 SWAP1 PUSH2 0x9CC JUMP JUMPDEST DUP1 ISZERO PUSH2 0x4B4 JUMPI DUP1 PUSH1 0x1F LT PUSH2 0x48B JUMPI PUSH2 0x100 DUP1 DUP4 SLOAD DIV MUL DUP4 MSTORE SWAP2 PUSH1 0x20 ADD SWAP2 PUSH2 0x4B4 JUMP JUMPDEST DUP3 ADD SWAP2 SWAP1 PUSH0 MSTORE PUSH1 0x20 PUSH0 KECCAK256 SWAP1 JUMPDEST DUP2 SLOAD DUP2 MSTORE SWAP1 PUSH1 0x1 ADD SWAP1 PUSH1 0x20 ADD DUP1 DUP4 GT PUSH2 0x497 JUMPI DUP3 SWAP1 SUB PUSH1 0x1F AND DUP3 ADD SWAP2 JUMPDEST POP POP POP POP POP DUP2 JUMP JUMPDEST PUSH0 PUSH8 0xDE0B6B3A7640000 DUP3 PUSH2 0x4D1 SWAP2 SWAP1 PUSH2 0x9FC JUMP JUMPDEST SWAP1 POP SWAP2 SWAP1 POP JUMP JUMPDEST DUP2 PUSH0 SWAP1 DUP2 PUSH2 0x4E6 SWAP2 SWAP1 PUSH2 0xBDA JUMP JUMPDEST POP DUP1 PUSH1 0x1 DUP2 SWAP1 SSTORE POP POP POP JUMP JUMPDEST PUSH1 0x2 PUSH0 SWAP1 SLOAD SWAP1 PUSH2 0x100 EXP SWAP1 DIV PUSH20 0xFFFFFFFFFFFFFFFFFFFFFFFFFFFFFFFFFFFFFFFF AND DUP2 JUMP JUMPDEST PUSH1 0x1 SLOAD DUP2 JUMP JUMPDEST PUSH0 PUSH1 0x3 DUP1 SLOAD SWAP1 POP SWAP1 POP SWAP1 JUMP JUMPDEST PUSH1 0x3 DUP2 DUP2 SLOAD DUP2 LT PUSH2 0x538 JUMPI PUSH0 DUP1 REVERT JUMPDEST SWAP1 PUSH0 MSTORE PUSH1 0x20 PUSH0 KECCAK256 ADD PUSH0 SWAP2 POP SLOAD SWAP1 PUSH2 0x100 EXP SWAP1 DIV PUSH20 0xFFFFFFFFFFFFFFFFFFFFFFFFFFFFFFFFFFFFFFFF AND DUP2 JUMP JUMPDEST PUSH0 DUP2 MLOAD SWAP1 POP SWAP2 SWAP1 POP JUMP JUMPDEST PUSH0 DUP3 DUP3 MSTORE PUSH1 0x20 DUP3 ADD SWAP1 POP SWAP3 SWAP2 POP POP JUMP JUMPDEST PUSH0 JUMPDEST DUP4 DUP2 LT ISZERO PUSH2 0x59B JUMPI DUP1 DUP3 ADD MLOAD DUP2 DUP5 ADD MSTORE PUSH1 0x20 DUP2 ADD SWAP1 POP PUSH2 0x580 JUMP JUMPDEST PUSH0 DUP5 DUP5 ADD MSTORE POP POP POP POP JUMP JUMPDEST PUSH0 PUSH1 0x1F NOT PUSH1 0x1F DUP4 ADD AND SWAP1 POP SWAP2 SWAP1 POP JUMP JUMPDEST PUSH0 PUSH2 0x5C0 DUP3 PUSH2 0x564 JUMP JUMPDEST PUSH2 0x5CA DUP2 DUP6 PUSH2 0x56E JUMP JUMPDEST SWAP4 POP PUSH2 0x5DA DUP2 DUP6 PUSH1 0x20 DUP7 ADD PUSH2 0x57E JUMP JUMPDEST PUSH2 0x5E3 DUP2 PUSH2 0x5A6 JUMP JUMPDEST DUP5 ADD SWAP2 POP POP SWAP3 SWAP2 POP POP JUMP JUMPDEST PUSH0 DUP2 SWAP1 POP SWAP2 SWAP1 POP JUMP JUMPDEST PUSH2 0x600 DUP2 PUSH2 0x5EE JUMP JUMPDEST DUP3 MSTORE POP POP JUMP JUMPDEST PUSH0 PUSH1 0x40 DUP3 ADD SWAP1 POP DUP2 DUP2 SUB PUSH0 DUP4 ADD MSTORE PUSH2 0x61E DUP2 DUP6 PUSH2 0x5B6 JUMP JUMPDEST SWAP1 POP PUSH2 0x62D PUSH1 0x20 DUP4 ADD DUP5 PUSH2 0x5F7 JUMP JUMPDEST SWAP4 SWAP3 POP POP POP JUMP JUMPDEST PUSH0 PUSH1 0x20 DUP3 ADD SWAP1 POP DUP2 DUP2 SUB PUSH0 DUP4 ADD MSTORE PUSH2 0x64C DUP2 DUP5 PUSH2 0x5B6 JUMP JUMPDEST SWAP1 POP SWAP3 SWAP2 POP POP JUMP JUMPDEST PUSH0 PUSH1 0x40 MLOAD SWAP1 POP SWAP1 JUMP JUMPDEST PUSH0 DUP1 REVERT JUMPDEST PUSH0 DUP1 REVERT JUMPDEST PUSH2 0x66E DUP2 PUSH2 0x5EE JUMP JUMPDEST DUP2 EQ PUSH2 0x678 JUMPI PUSH0 DUP1 REVERT JUMPDEST POP JUMP JUMPDEST PUSH0 DUP2 CALLDATALOAD SWAP1 POP PUSH2 0x689 DUP2 PUSH2 0x665 JUMP JUMPDEST SWAP3 SWAP2 POP POP JUMP JUMPDEST PUSH0 PUSH1 0x20 DUP3 DUP5 SUB SLT ISZERO PUSH2 0x6A4 JUMPI PUSH2 0x6A3 PUSH2 0x65D JUMP JUMPDEST JUMPDEST PUSH0 PUSH2 0x6B1 DUP5 DUP3 DUP6 ADD PUSH2 0x67B JUMP JUMPDEST SWAP2 POP POP SWAP3 SWAP2 POP POP JUMP JUMPDEST PUSH0 PUSH1 0x20 DUP3 ADD SWAP1 POP PUSH2 0x6CD PUSH0 DUP4 ADD DUP5 PUSH2 0x5F7 JUMP JUMPDEST SWAP3 SWAP2 POP POP JUMP JUMPDEST PUSH0 DUP1 REVERT JUMPDEST PUSH0 DUP1 REVERT JUMPDEST PUSH32 0x4E487B7100000000000000000000000000000000000000000000000000000000 PUSH0 MSTORE PUSH1 0x41 PUSH1 0x4 MSTORE PUSH1 0x24 PUSH0 REVERT JUMPDEST PUSH2 0x711 DUP3 PUSH2 0x5A6 JUMP JUMPDEST DUP2 ADD DUP2 DUP2 LT PUSH8 0xFFFFFFFFFFFFFFFF DUP3 GT OR ISZERO PUSH2 0x730 JUMPI PUSH2 0x72F PUSH2 0x6DB JUMP JUMPDEST JUMPDEST DUP1 PUSH1 0x40 MSTORE POP POP POP JUMP JUMPDEST PUSH0 PUSH2 0x742 PUSH2 0x654 JUMP JUMPDEST SWAP1 POP PUSH2 0x74E DUP3 DUP3 PUSH2 0x708 JUMP JUMPDEST SWAP2 SWAP1 POP JUMP JUMPDEST PUSH0 PUSH8 0xFFFFFFFFFFFFFFFF DUP3 GT ISZERO PUSH2 0x76D JUMPI PUSH2 0x76C PUSH2 0x6DB JUMP JUMPDEST JUMPDEST PUSH2 0x776 DUP3 PUSH2 0x5A6 JUMP JUMPDEST SWAP1 POP PUSH1 0x20 DUP2 ADD SWAP1 POP SWAP2 SWAP1 POP JUMP JUMPDEST DUP3 DUP2 DUP4 CALLDATACOPY PUSH0 DUP4 DUP4 ADD MSTORE POP POP POP JUMP JUMPDEST PUSH0 PUSH2 0x7A3 PUSH2 0x79E DUP5 PUSH2 0x753 JUMP JUMPDEST PUSH2 0x739 JUMP JUMPDEST SWAP1 POP DUP3 DUP2 MSTORE PUSH1 0x20 DUP2 ADD DUP5 DUP5 DUP5 ADD GT ISZERO PUSH2 0x7BF JUMPI PUSH2 0x7BE PUSH2 0x6D7 JUMP JUMPDEST JUMPDEST PUSH2 0x7CA DUP5 DUP3 DUP6 PUSH2 0x783 JUMP JUMPDEST POP SWAP4 SWAP3 POP POP POP JUMP JUMPDEST PUSH0 DUP3 PUSH1 0x1F DUP4 ADD SLT PUSH2 0x7E6 JUMPI PUSH2 0x7E5 PUSH2 0x6D3 JUMP JUMPDEST JUMPDEST DUP2 CALLDATALOAD PUSH2 0x7F6 DUP5 DUP3 PUSH1 0x20 DUP7 ADD PUSH2 0x791 JUMP JUMPDEST SWAP2 POP POP SWAP3 SWAP2 POP POP JUMP JUMPDEST PUSH0 DUP1 PUSH1 0x40 DUP4 DUP6 SUB SLT ISZERO PUSH2 0x815 JUMPI PUSH2 0x814 PUSH2 0x65D JUMP JUMPDEST JUMPDEST PUSH0 DUP4 ADD CALLDATALOAD PUSH8 0xFFFFFFFFFFFFFFFF DUP2 GT ISZERO PUSH2 0x832 JUMPI PUSH2 0x831 PUSH2 0x661 JUMP JUMPDEST JUMPDEST PUSH2 0x83E DUP6 DUP3 DUP7 ADD PUSH2 0x7D2 JUMP JUMPDEST SWAP3 POP POP PUSH1 0x20 PUSH2 0x84F DUP6 DUP3 DUP7 ADD PUSH2 0x67B JUMP JUMPDEST SWAP2 POP POP SWAP3 POP SWAP3 SWAP1 POP JUMP JUMPDEST PUSH0 PUSH20 0xFFFFFFFFFFFFFFFFFFFFFFFFFFFFFFFFFFFFFFFF DUP3 AND SWAP1 POP SWAP2 SWAP1 POP JUMP JUMPDEST PUSH0 PUSH2 0x882 DUP3 PUSH2 0x859 JUMP JUMPDEST SWAP1 POP SWAP2 SWAP1 POP JUMP JUMPDEST PUSH2 0x892 DUP2 PUSH2 0x878 JUMP JUMPDEST DUP3 MSTORE POP POP JUMP JUMPDEST PUSH0 PUSH1 0x20 DUP3 ADD SWAP1 POP PUSH2 0x8AB PUSH0 DUP4 ADD DUP5 PUSH2 0x889 JUMP JUMPDEST SWAP3 SWAP2 POP POP JUMP JUMPDEST PUSH32 0x626F6F6B207072696365206973206E6F7420636F72726563742C20696E737566 PUSH0 DUP3 ADD MSTORE PUSH32 0x66696369656E742076616C756500000000000000000000000000000000000000 PUSH1 0x20 DUP3 ADD MSTORE POP JUMP JUMPDEST PUSH0 PUSH2 0x90B PUSH1 0x2D DUP4 PUSH2 0x56E JUMP JUMPDEST SWAP2 POP PUSH2 0x916 DUP3 PUSH2 0x8B1 JUMP JUMPDEST PUSH1 0x40 DUP3 ADD SWAP1 POP SWAP2 SWAP1 POP JUMP JUMPDEST PUSH0 PUSH1 0x20 DUP3 ADD SWAP1 POP DUP2 DUP2 SUB PUSH0 DUP4 ADD MSTORE PUSH2 0x938 DUP2 PUSH2 0x8FF JUMP JUMPDEST SWAP1 POP SWAP2 SWAP1 POP JUMP JUMPDEST PUSH32 0x4E487B7100000000000000000000000000000000000000000000000000000000 PUSH0 MSTORE PUSH1 0x11 PUSH1 0x4 MSTORE PUSH1 0x24 PUSH0 REVERT JUMPDEST PUSH0 PUSH2 0x976 DUP3 PUSH2 0x5EE JUMP JUMPDEST SWAP2 POP PUSH2 0x981 DUP4 PUSH2 0x5EE JUMP JUMPDEST SWAP3 POP DUP3 DUP3 SUB SWAP1 POP DUP2 DUP2 GT ISZERO PUSH2 0x999 JUMPI PUSH2 0x998 PUSH2 0x93F JUMP JUMPDEST JUMPDEST SWAP3 SWAP2 POP POP JUMP JUMPDEST PUSH32 0x4E487B7100000000000000000000000000000000000000000000000000000000 PUSH0 MSTORE PUSH1 0x22 PUSH1 0x4 MSTORE PUSH1 0x24 PUSH0 REVERT JUMPDEST PUSH0 PUSH1 0x2 DUP3 DIV SWAP1 POP PUSH1 0x1 DUP3 AND DUP1 PUSH2 0x9E3 JUMPI PUSH1 0x7F DUP3 AND SWAP2 POP JUMPDEST PUSH1 0x20 DUP3 LT DUP2 SUB PUSH2 0x9F6 JUMPI PUSH2 0x9F5 PUSH2 0x99F JUMP JUMPDEST JUMPDEST POP SWAP2 SWAP1 POP JUMP JUMPDEST PUSH0 PUSH2 0xA06 DUP3 PUSH2 0x5EE JUMP JUMPDEST SWAP2 POP PUSH2 0xA11 DUP4 PUSH2 0x5EE JUMP JUMPDEST SWAP3 POP DUP3 DUP3 MUL PUSH2 0xA1F DUP2 PUSH2 0x5EE JUMP JUMPDEST SWAP2 POP DUP3 DUP3 DIV DUP5 EQ DUP4 ISZERO OR PUSH2 0xA36 JUMPI PUSH2 0xA35 PUSH2 0x93F JUMP JUMPDEST JUMPDEST POP SWAP3 SWAP2 POP POP JUMP JUMPDEST PUSH0 DUP2 SWAP1 POP DUP2 PUSH0 MSTORE PUSH1 0x20 PUSH0 KECCAK256 SWAP1 POP SWAP2 SWAP1 POP JUMP JUMPDEST PUSH0 PUSH1 0x20 PUSH1 0x1F DUP4 ADD DIV SWAP1 POP SWAP2 SWAP1 POP JUMP JUMPDEST PUSH0 DUP3 DUP3 SHL SWAP1 POP SWAP3 SWAP2 POP POP JUMP JUMPDEST PUSH0 PUSH1 0x8 DUP4 MUL PUSH2 0xA99 PUSH32 0xFFFFFFFFFFFFFFFFFFFFFFFFFFFFFFFFFFFFFFFFFFFFFFFFFFFFFFFFFFFFFFFF DUP3 PUSH2 0xA5E JUMP JUMPDEST PUSH2 0xAA3 DUP7 DUP4 PUSH2 0xA5E JUMP JUMPDEST SWAP6 POP DUP1 NOT DUP5 AND SWAP4 POP DUP1 DUP7 AND DUP5 OR SWAP3 POP POP POP SWAP4 SWAP3 POP POP POP JUMP JUMPDEST PUSH0 DUP2 SWAP1 POP SWAP2 SWAP1 POP JUMP JUMPDEST PUSH0 PUSH2 0xADE PUSH2 0xAD9 PUSH2 0xAD4 DUP5 PUSH2 0x5EE JUMP JUMPDEST PUSH2 0xABB JUMP JUMPDEST PUSH2 0x5EE JUMP JUMPDEST SWAP1 POP SWAP2 SWAP1 POP JUMP JUMPDEST PUSH0 DUP2 SWAP1 POP SWAP2 SWAP1 POP JUMP JUMPDEST PUSH2 0xAF7 DUP4 PUSH2 0xAC4 JUMP JUMPDEST PUSH2 0xB0B PUSH2 0xB03 DUP3 PUSH2 0xAE5 JUMP JUMPDEST DUP5 DUP5 SLOAD PUSH2 0xA6A JUMP JUMPDEST DUP3 SSTORE POP POP POP POP JUMP JUMPDEST PUSH0 SWAP1 JUMP JUMPDEST PUSH2 0xB1F PUSH2 0xB13 JUMP JUMPDEST PUSH2 0xB2A DUP2 DUP5 DUP5 PUSH2 0xAEE JUMP JUMPDEST POP POP POP JUMP JUMPDEST JUMPDEST DUP2 DUP2 LT ISZERO PUSH2 0xB4D JUMPI PUSH2 0xB42 PUSH0 DUP3 PUSH2 0xB17 JUMP JUMPDEST PUSH1 0x1 DUP2 ADD SWAP1 POP PUSH2 0xB30 JUMP JUMPDEST POP POP JUMP JUMPDEST PUSH1 0x1F DUP3 GT ISZERO PUSH2 0xB92 JUMPI PUSH2 0xB63 DUP2 PUSH2 0xA3D JUMP JUMPDEST PUSH2 0xB6C DUP5 PUSH2 0xA4F JUMP JUMPDEST DUP2 ADD PUSH1 0x20 DUP6 LT ISZERO PUSH2 0xB7B JUMPI DUP2 SWAP1 POP JUMPDEST PUSH2 0xB8F PUSH2 0xB87 DUP6 PUSH2 0xA4F JUMP JUMPDEST DUP4 ADD DUP3 PUSH2 0xB2F JUMP JUMPDEST POP POP JUMPDEST POP POP POP JUMP JUMPDEST PUSH0 DUP3 DUP3 SHR SWAP1 POP SWAP3 SWAP2 POP POP JUMP JUMPDEST PUSH0 PUSH2 0xBB2 PUSH0 NOT DUP5 PUSH1 0x8 MUL PUSH2 0xB97 JUMP JUMPDEST NOT DUP1 DUP4 AND SWAP2 POP POP SWAP3 SWAP2 POP POP JUMP JUMPDEST PUSH0 PUSH2 0xBCA DUP4 DUP4 PUSH2 0xBA3 JUMP JUMPDEST SWAP2 POP DUP3 PUSH1 0x2 MUL DUP3 OR SWAP1 POP SWAP3 SWAP2 POP POP JUMP JUMPDEST PUSH2 0xBE3 DUP3 PUSH2 0x564 JUMP JUMPDEST PUSH8 0xFFFFFFFFFFFFFFFF DUP2 GT ISZERO PUSH2 0xBFC JUMPI PUSH2 0xBFB PUSH2 0x6DB JUMP JUMPDEST JUMPDEST PUSH2 0xC06 DUP3 SLOAD PUSH2 0x9CC JUMP JUMPDEST PUSH2 0xC11 DUP3 DUP3 DUP6 PUSH2 0xB51 JUMP JUMPDEST PUSH0 PUSH1 0x20 SWAP1 POP PUSH1 0x1F DUP4 GT PUSH1 0x1 DUP2 EQ PUSH2 0xC42 JUMPI PUSH0 DUP5 ISZERO PUSH2 0xC30 JUMPI DUP3 DUP8 ADD MLOAD SWAP1 POP JUMPDEST PUSH2 0xC3A DUP6 DUP3 PUSH2 0xBBF JUMP JUMPDEST DUP7 SSTORE POP PUSH2 0xCA1 JUMP JUMPDEST PUSH1 0x1F NOT DUP5 AND PUSH2 0xC50 DUP7 PUSH2 0xA3D JUMP JUMPDEST PUSH0 JUMPDEST DUP3 DUP2 LT ISZERO PUSH2 0xC77 JUMPI DUP5 DUP10 ADD MLOAD DUP3 SSTORE PUSH1 0x1 DUP3 ADD SWAP2 POP PUSH1 0x20 DUP6 ADD SWAP5 POP PUSH1 0x20 DUP2 ADD SWAP1 POP PUSH2 0xC52 JUMP JUMPDEST DUP7 DUP4 LT ISZERO PUSH2 0xC94 JUMPI DUP5 DUP10 ADD MLOAD PUSH2 0xC90 PUSH1 0x1F DUP10 AND DUP3 PUSH2 0xBA3 JUMP JUMPDEST DUP4 SSTORE POP JUMPDEST PUSH1 0x1 PUSH1 0x2 DUP9 MUL ADD DUP9 SSTORE POP POP POP JUMPDEST POP POP POP POP POP POP JUMP INVALID LOG2 PUSH5 0x6970667358 0x22 SLT KECCAK256 0xC DUP10 0xCF GASPRICE 0xB5 PUSH19 0xB3FC896152C6FD7A2A6F9E863F5C3736C134BA SWAP8 0x2F PUSH13 0x5D03D42A64736F6C6343000814 STOP CALLER "
		},
		"gasEstimates": {
			"creation": {
				"codeDepositCost": "659000",
				"executionCost": "687",
				"totalCost": "659687"
			},
			"external": {
				"buyBook()": "infinite",
				"buyers(uint256)": "5032",
				"buyersCount()": "2506",
				"getBook()": "infinite",
				"owner()": "2530",
				"price()": "2469",
				"setBook(string,uint256)": "infinite",
				"title()": "infinite",
				"toWei(uint256)": "infinite"
			}
		},
		"methodIdentifiers": {
			"buyBook()": "189a55e7",
			"buyers(uint256)": "f2aa8218",
			"buyersCount()": "ba49a08c",
			"getBook()": "3b0c197e",
			"owner()": "8da5cb5b",
			"price()": "a035b1fe",
			"setBook(string,uint256)": "808f0114",
			"title()": "4a79d50c",
			"toWei(uint256)": "669dafe8"
		}
	},
	"abi": [
		{
			"inputs": [],
			"name": "buyBook",
			"outputs": [],
			"stateMutability": "payable",
			"type": "function"
		},
		{
			"inputs": [
				{
					"internalType": "uint256",
					"name": "",
					"type": "uint256"
				}
			],
			"name": "buyers",
			"outputs": [
				{
					"internalType": "address",
					"name": "",
					"type": "address"
				}
			],
			"stateMutability": "view",
			"type": "function"
		},
		{
			"inputs": [],
			"name": "buyersCount",
			"outputs": [
				{
					"internalType": "uint256",
					"name": "",
					"type": "uint256"
				}
			],
			"stateMutability": "view",
			"type": "function"
		},
		{
			"inputs": [],
			"name": "getBook",
			"outputs": [
				{
					"internalType": "string",
					"name": "",
					"type": "string"
				},
				{
					"internalType": "uint256",
					"name": "",
					"type": "uint256"
				}
			],
			"stateMutability": "view",
			"type": "function"
		},
		{
			"inputs": [],
			"name": "owner",
			"outputs": [
				{
					"internalType": "address",
					"name": "",
					"type": "address"
				}
			],
			"stateMutability": "view",
			"type": "function"
		},
		{
			"inputs": [],
			"name": "price",
			"outputs": [
				{
					"internalType": "uint256",
					"name": "",
					"type": "uint256"
				}
			],
			"stateMutability": "view",
			"type": "function"
		},
		{
			"inputs": [
				{
					"internalType": "string",
					"name": "x",
					"type": "string"
				},
				{
					"internalType": "uint256",
					"name": "y",
					"type": "uint256"
				}
			],
			"name": "setBook",
			"outputs": [],
			"stateMutability": "nonpayable",
			"type": "function"
		},
		{
			"inputs": [],
			"name": "title",
			"outputs": [
				{
					"internalType": "string",
					"name": "",
					"type": "string"
				}
			],
			"stateMutability": "view",
			"type": "function"
		},
		{
			"inputs": [
				{
					"internalType": "uint256",
					"name": "amt",
					"type": "uint256"
				}
			],
			"name": "toWei",
			"outputs": [
				{
					"internalType": "uint256",
					"name": "",
					"type": "uint256"
				}
			],
			"stateMutability": "pure",
			"type": "function"
		}
	]
}